{
  "contractName": "Assets",
  "abi": [
    {
      "inputs": [],
      "stateMutability": "nonpayable",
      "type": "constructor"
    },
    {
      "anonymous": false,
      "inputs": [
        {
          "indexed": true,
          "internalType": "address",
          "name": "account",
          "type": "address"
        },
        {
          "indexed": true,
          "internalType": "address",
          "name": "operator",
          "type": "address"
        },
        {
          "indexed": false,
          "internalType": "bool",
          "name": "approved",
          "type": "bool"
        }
      ],
      "name": "ApprovalForAll",
      "type": "event"
    },
    {
      "anonymous": false,
      "inputs": [
        {
          "indexed": true,
          "internalType": "address",
          "name": "operator",
          "type": "address"
        },
        {
          "indexed": true,
          "internalType": "address",
          "name": "from",
          "type": "address"
        },
        {
          "indexed": true,
          "internalType": "address",
          "name": "to",
          "type": "address"
        },
        {
          "indexed": false,
          "internalType": "uint256[]",
          "name": "ids",
          "type": "uint256[]"
        },
        {
          "indexed": false,
          "internalType": "uint256[]",
          "name": "values",
          "type": "uint256[]"
        }
      ],
      "name": "TransferBatch",
      "type": "event"
    },
    {
      "anonymous": false,
      "inputs": [
        {
          "indexed": true,
          "internalType": "address",
          "name": "operator",
          "type": "address"
        },
        {
          "indexed": true,
          "internalType": "address",
          "name": "from",
          "type": "address"
        },
        {
          "indexed": true,
          "internalType": "address",
          "name": "to",
          "type": "address"
        },
        {
          "indexed": false,
          "internalType": "uint256",
          "name": "id",
          "type": "uint256"
        },
        {
          "indexed": false,
          "internalType": "uint256",
          "name": "value",
          "type": "uint256"
        }
      ],
      "name": "TransferSingle",
      "type": "event"
    },
    {
      "anonymous": false,
      "inputs": [
        {
          "indexed": false,
          "internalType": "string",
          "name": "value",
          "type": "string"
        },
        {
          "indexed": true,
          "internalType": "uint256",
          "name": "id",
          "type": "uint256"
        }
      ],
      "name": "URI",
      "type": "event"
    },
    {
      "anonymous": false,
      "inputs": [
        {
          "indexed": false,
          "internalType": "address",
          "name": "from",
          "type": "address"
        },
        {
          "indexed": false,
          "internalType": "address",
          "name": "to",
          "type": "address"
        },
        {
          "indexed": false,
          "internalType": "uint256",
          "name": "id",
          "type": "uint256"
        },
        {
          "indexed": false,
          "internalType": "uint256",
          "name": "value",
          "type": "uint256"
        }
      ],
      "name": "unLock",
      "type": "event"
    },
    {
      "inputs": [
        {
          "internalType": "address",
          "name": "account",
          "type": "address"
        },
        {
          "internalType": "uint256",
          "name": "id",
          "type": "uint256"
        }
      ],
      "name": "balanceOf",
      "outputs": [
        {
          "internalType": "uint256",
          "name": "",
          "type": "uint256"
        }
      ],
      "stateMutability": "view",
      "type": "function"
    },
    {
      "inputs": [
        {
          "internalType": "address[]",
          "name": "accounts",
          "type": "address[]"
        },
        {
          "internalType": "uint256[]",
          "name": "ids",
          "type": "uint256[]"
        }
      ],
      "name": "balanceOfBatch",
      "outputs": [
        {
          "internalType": "uint256[]",
          "name": "",
          "type": "uint256[]"
        }
      ],
      "stateMutability": "view",
      "type": "function"
    },
    {
      "inputs": [],
      "name": "currentcount",
      "outputs": [
        {
          "internalType": "uint256",
          "name": "",
          "type": "uint256"
        }
      ],
      "stateMutability": "view",
      "type": "function"
    },
    {
      "inputs": [
        {
          "internalType": "address",
          "name": "account",
          "type": "address"
        },
        {
          "internalType": "address",
          "name": "operator",
          "type": "address"
        }
      ],
      "name": "isApprovedForAll",
      "outputs": [
        {
          "internalType": "bool",
          "name": "",
          "type": "bool"
        }
      ],
      "stateMutability": "view",
      "type": "function"
    },
    {
      "inputs": [],
      "name": "owner",
      "outputs": [
        {
          "internalType": "address",
          "name": "",
          "type": "address"
        }
      ],
      "stateMutability": "view",
      "type": "function"
    },
    {
      "inputs": [
        {
          "internalType": "address",
          "name": "from",
          "type": "address"
        },
        {
          "internalType": "address",
          "name": "to",
          "type": "address"
        },
        {
          "internalType": "uint256[]",
          "name": "ids",
          "type": "uint256[]"
        },
        {
          "internalType": "uint256[]",
          "name": "amounts",
          "type": "uint256[]"
        },
        {
          "internalType": "bytes",
          "name": "data",
          "type": "bytes"
        }
      ],
      "name": "safeBatchTransferFrom",
      "outputs": [],
      "stateMutability": "nonpayable",
      "type": "function"
    },
    {
      "inputs": [
        {
          "internalType": "address",
          "name": "from",
          "type": "address"
        },
        {
          "internalType": "address",
          "name": "to",
          "type": "address"
        },
        {
          "internalType": "uint256",
          "name": "id",
          "type": "uint256"
        },
        {
          "internalType": "uint256",
          "name": "amount",
          "type": "uint256"
        },
        {
          "internalType": "bytes",
          "name": "data",
          "type": "bytes"
        }
      ],
      "name": "safeTransferFrom",
      "outputs": [],
      "stateMutability": "nonpayable",
      "type": "function"
    },
    {
      "inputs": [
        {
          "internalType": "address",
          "name": "operator",
          "type": "address"
        },
        {
          "internalType": "bool",
          "name": "approved",
          "type": "bool"
        }
      ],
      "name": "setApprovalForAll",
      "outputs": [],
      "stateMutability": "nonpayable",
      "type": "function"
    },
    {
      "inputs": [
        {
          "internalType": "bytes4",
          "name": "interfaceId",
          "type": "bytes4"
        }
      ],
      "name": "supportsInterface",
      "outputs": [
        {
          "internalType": "bool",
          "name": "",
          "type": "bool"
        }
      ],
      "stateMutability": "view",
      "type": "function"
    },
    {
      "inputs": [
        {
          "internalType": "uint256",
          "name": "",
          "type": "uint256"
        }
      ],
      "name": "uri",
      "outputs": [
        {
          "internalType": "string",
          "name": "",
          "type": "string"
        }
      ],
      "stateMutability": "view",
      "type": "function"
    },
    {
      "inputs": [
        {
          "internalType": "string",
          "name": "assetname",
          "type": "string"
        },
        {
          "internalType": "uint256",
          "name": "price",
          "type": "uint256"
        }
      ],
      "name": "addAsset",
      "outputs": [
        {
          "internalType": "uint256",
          "name": "",
          "type": "uint256"
        }
      ],
      "stateMutability": "nonpayable",
      "type": "function"
    },
    {
      "inputs": [
        {
          "internalType": "uint256",
          "name": "id",
          "type": "uint256"
        },
        {
          "internalType": "uint256",
          "name": "amount",
          "type": "uint256"
        }
      ],
      "name": "mint",
      "outputs": [],
      "stateMutability": "nonpayable",
      "type": "function"
    },
    {
      "inputs": [],
      "name": "withdraw",
      "outputs": [],
      "stateMutability": "payable",
      "type": "function"
    },
    {
      "inputs": [
        {
          "internalType": "address",
          "name": "newowner",
          "type": "address"
        }
      ],
      "name": "changeowner",
      "outputs": [],
      "stateMutability": "nonpayable",
      "type": "function"
    },
    {
      "inputs": [
        {
          "internalType": "uint256",
          "name": "assetid",
          "type": "uint256"
        },
        {
          "internalType": "uint256",
          "name": "amount",
          "type": "uint256"
        }
      ],
      "name": "lock",
      "outputs": [],
      "stateMutability": "nonpayable",
      "type": "function"
    },
    {
      "inputs": [
        {
          "internalType": "uint256",
          "name": "assetid",
          "type": "uint256"
        },
        {
          "internalType": "uint256",
          "name": "amount",
          "type": "uint256"
        }
      ],
      "name": "unlock",
      "outputs": [],
      "stateMutability": "nonpayable",
      "type": "function"
    },
    {
      "inputs": [
        {
          "internalType": "uint256",
          "name": "assetid",
          "type": "uint256"
        },
        {
          "internalType": "uint256",
          "name": "amount",
          "type": "uint256"
        }
      ],
      "name": "updatelock",
      "outputs": [],
      "stateMutability": "nonpayable",
      "type": "function"
    }
  ],
  "bytecode": "0x608060405260006003553480156200001657600080fd5b50604051806060016040528060278152602001620038056027913962000042816200008a60201b60201c565b5032600560006101000a81548173ffffffffffffffffffffffffffffffffffffffff021916908373ffffffffffffffffffffffffffffffffffffffff160217905550620001bb565b8060029080519060200190620000a2929190620000a6565b5050565b828054620000b49062000185565b90600052602060002090601f016020900481019282620000d8576000855562000124565b82601f10620000f357805160ff191683800117855562000124565b8280016001018555821562000124579182015b828111156200012357825182559160200191906001019062000106565b5b50905062000133919062000137565b5090565b5b808211156200015257600081600090555060010162000138565b5090565b7f4e487b7100000000000000000000000000000000000000000000000000000000600052602260045260246000fd5b600060028204905060018216806200019e57607f821691505b60208210811415620001b557620001b462000156565b5b50919050565b61363a80620001cb6000396000f3fe6080604052600436106100fd5760003560e01c80634e1273f411610095578063a22cb46511610064578063a22cb46514610335578063e985e9c51461035e578063f242432a1461039b578063f7cacf59146103c4578063fc09b233146103ed576100fd565b80634e1273f41461027b5780635bfadb24146102b8578063662e4ee4146102e15780638da5cb5b1461030a576100fd565b80631b2ef1ca116100d15780631b2ef1ca146101e25780631bc7ffe91461020b5780632eb2c2d6146102485780633ccfd60b14610271576100fd565b8062fdd58e1461010257806301ffc9a71461013f5780630e89341c1461017c5780631338736f146101b9575b600080fd5b34801561010e57600080fd5b506101296004803603810190610124919061207a565b610418565b60405161013691906120c9565b60405180910390f35b34801561014b57600080fd5b506101666004803603810190610161919061213c565b6104e1565b6040516101739190612184565b60405180910390f35b34801561018857600080fd5b506101a3600480360381019061019e919061219f565b6105c3565b6040516101b09190612265565b60405180910390f35b3480156101c557600080fd5b506101e060048036038101906101db9190612287565b610657565b005b3480156101ee57600080fd5b5061020960048036038101906102049190612287565b610740565b005b34801561021757600080fd5b50610232600480360381019061022d91906123fc565b6107b9565b60405161023f91906120c9565b60405180910390f35b34801561025457600080fd5b5061026f600480360381019061026a91906125c1565b6108a0565b005b610279610941565b005b34801561028757600080fd5b506102a2600480360381019061029d9190612753565b610a0c565b6040516102af9190612889565b60405180910390f35b3480156102c457600080fd5b506102df60048036038101906102da9190612287565b610b25565b005b3480156102ed57600080fd5b50610308600480360381019061030391906128ab565b610ca5565b005b34801561031657600080fd5b5061031f610d43565b60405161032c91906128e7565b60405180910390f35b34801561034157600080fd5b5061035c6004803603810190610357919061292e565b610d69565b005b34801561036a57600080fd5b506103856004803603810190610380919061296e565b610d7f565b6040516103929190612184565b60405180910390f35b3480156103a757600080fd5b506103c260048036038101906103bd91906129ae565b610e13565b005b3480156103d057600080fd5b506103eb60048036038101906103e69190612287565b610eb4565b005b3480156103f957600080fd5b50610402610fac565b60405161040f91906120c9565b60405180910390f35b60008073ffffffffffffffffffffffffffffffffffffffff168373ffffffffffffffffffffffffffffffffffffffff161415610489576040517f08c379a000000000000000000000000000000000000000000000000000000000815260040161048090612ab7565b60405180910390fd5b60008083815260200190815260200160002060008473ffffffffffffffffffffffffffffffffffffffff1673ffffffffffffffffffffffffffffffffffffffff16815260200190815260200160002054905092915050565b60007fd9b67a26000000000000000000000000000000000000000000000000000000007bffffffffffffffffffffffffffffffffffffffffffffffffffffffff1916827bffffffffffffffffffffffffffffffffffffffffffffffffffffffff191614806105ac57507f0e89341c000000000000000000000000000000000000000000000000000000007bffffffffffffffffffffffffffffffffffffffffffffffffffffffff1916827bffffffffffffffffffffffffffffffffffffffffffffffffffffffff1916145b806105bc57506105bb82610fb2565b5b9050919050565b6060600280546105d290612b06565b80601f01602080910402602001604051908101604052809291908181526020018280546105fe90612b06565b801561064b5780601f106106205761010080835404028352916020019161064b565b820191906000526020600020905b81548152906001019060200180831161062e57829003601f168201915b50505050509050919050565b600560009054906101000a900473ffffffffffffffffffffffffffffffffffffffff1673ffffffffffffffffffffffffffffffffffffffff163373ffffffffffffffffffffffffffffffffffffffff16146106b157600080fd5b806106bc3284610418565b10156106c757600080fd5b6106d232838361101c565b80600660003273ffffffffffffffffffffffffffffffffffffffff1673ffffffffffffffffffffffffffffffffffffffff168152602001908152602001600020600001600084815260200190815260200160002060008282546107359190612b67565b925050819055505050565b600560009054906101000a900473ffffffffffffffffffffffffffffffffffffffff1673ffffffffffffffffffffffffffffffffffffffff163373ffffffffffffffffffffffffffffffffffffffff161461079a57600080fd5b6107b532838360405180602001604052806000815250611239565b5050565b6000600560009054906101000a900473ffffffffffffffffffffffffffffffffffffffff1673ffffffffffffffffffffffffffffffffffffffff163373ffffffffffffffffffffffffffffffffffffffff161461081557600080fd5b600060405180606001604052808581526020018481526020016003548152509050806004600060035481526020019081526020016000206000820151816000019080519060200190610868929190611f2f565b5060208201518160010155604082015181600201559050506003600081548092919061089390612bbd565b9190505591505092915050565b6108a86113cf565b73ffffffffffffffffffffffffffffffffffffffff168573ffffffffffffffffffffffffffffffffffffffff1614806108ee57506108ed856108e86113cf565b610d7f565b5b61092d576040517f08c379a000000000000000000000000000000000000000000000000000000000815260040161092490612c78565b60405180910390fd5b61093a85858585856113d7565b5050505050565b600560009054906101000a900473ffffffffffffffffffffffffffffffffffffffff1673ffffffffffffffffffffffffffffffffffffffff163373ffffffffffffffffffffffffffffffffffffffff161461099b57600080fd5b6000600560009054906101000a900473ffffffffffffffffffffffffffffffffffffffff1690508073ffffffffffffffffffffffffffffffffffffffff166108fc479081150290604051600060405180830381858888f19350505050158015610a08573d6000803e3d6000fd5b5050565b60608151835114610a52576040517f08c379a0000000000000000000000000000000000000000000000000000000008152600401610a4990612d0a565b60405180910390fd5b6000835167ffffffffffffffff811115610a6f57610a6e6122d1565b5b604051908082528060200260200182016040528015610a9d5781602001602082028036833780820191505090505b50905060005b8451811015610b1a57610aea858281518110610ac257610ac1612d2a565b5b6020026020010151858381518110610add57610adc612d2a565b5b6020026020010151610418565b828281518110610afd57610afc612d2a565b5b60200260200101818152505080610b1390612bbd565b9050610aa3565b508091505092915050565b600560009054906101000a900473ffffffffffffffffffffffffffffffffffffffff1673ffffffffffffffffffffffffffffffffffffffff163373ffffffffffffffffffffffffffffffffffffffff1614610b7f57600080fd5b80600660003273ffffffffffffffffffffffffffffffffffffffff1673ffffffffffffffffffffffffffffffffffffffff1681526020019081526020016000206000016000848152602001908152602001600020541015610bdf57600080fd5b80600660003273ffffffffffffffffffffffffffffffffffffffff1673ffffffffffffffffffffffffffffffffffffffff16815260200190815260200160002060000160008481526020019081526020016000206000828254610c429190612d59565b925050819055507f7e4209bc980fd41d03f779e89a38db8da274c58da91e4e2c698b98cbd127b84330328484604051610c7e9493929190612d8d565b60405180910390a1610ca132838360405180602001604052806000815250611239565b5050565b600560009054906101000a900473ffffffffffffffffffffffffffffffffffffffff1673ffffffffffffffffffffffffffffffffffffffff163373ffffffffffffffffffffffffffffffffffffffff1614610cff57600080fd5b80600560006101000a81548173ffffffffffffffffffffffffffffffffffffffff021916908373ffffffffffffffffffffffffffffffffffffffff16021790555050565b600560009054906101000a900473ffffffffffffffffffffffffffffffffffffffff1681565b610d7b610d746113cf565b83836116eb565b5050565b6000600160008473ffffffffffffffffffffffffffffffffffffffff1673ffffffffffffffffffffffffffffffffffffffff16815260200190815260200160002060008373ffffffffffffffffffffffffffffffffffffffff1673ffffffffffffffffffffffffffffffffffffffff16815260200190815260200160002060009054906101000a900460ff16905092915050565b610e1b6113cf565b73ffffffffffffffffffffffffffffffffffffffff168573ffffffffffffffffffffffffffffffffffffffff161480610e615750610e6085610e5b6113cf565b610d7f565b5b610ea0576040517f08c379a0000000000000000000000000000000000000000000000000000000008152600401610e9790612e44565b60405180910390fd5b610ead8585858585611858565b5050505050565b600560009054906101000a900473ffffffffffffffffffffffffffffffffffffffff1673ffffffffffffffffffffffffffffffffffffffff163373ffffffffffffffffffffffffffffffffffffffff1614610f0e57600080fd5b6000600660003273ffffffffffffffffffffffffffffffffffffffff1673ffffffffffffffffffffffffffffffffffffffff168152602001908152602001600020600001600084815260200190815260200160002054905080821115610f8857610f83838284610f7e9190612d59565b610657565b610fa7565b80821015610fa657610fa5838383610fa09190612d59565b610b25565b5b5b505050565b60035481565b60007f01ffc9a7000000000000000000000000000000000000000000000000000000007bffffffffffffffffffffffffffffffffffffffffffffffffffffffff1916827bffffffffffffffffffffffffffffffffffffffffffffffffffffffff1916149050919050565b600073ffffffffffffffffffffffffffffffffffffffff168373ffffffffffffffffffffffffffffffffffffffff16141561108c576040517f08c379a000000000000000000000000000000000000000000000000000000000815260040161108390612ed6565b60405180910390fd5b60006110966113cf565b90506110c6818560006110a887611ada565b6110b187611ada565b60405180602001604052806000815250611b54565b600080600085815260200190815260200160002060008673ffffffffffffffffffffffffffffffffffffffff1673ffffffffffffffffffffffffffffffffffffffff1681526020019081526020016000205490508281101561115d576040517f08c379a000000000000000000000000000000000000000000000000000000000815260040161115490612f68565b60405180910390fd5b82810360008086815260200190815260200160002060008773ffffffffffffffffffffffffffffffffffffffff1673ffffffffffffffffffffffffffffffffffffffff16815260200190815260200160002081905550600073ffffffffffffffffffffffffffffffffffffffff168573ffffffffffffffffffffffffffffffffffffffff168373ffffffffffffffffffffffffffffffffffffffff167fc3d58168c5ae7397731d063d5bbf3d657854427343f4c083240f7aacaa2d0f62878760405161122a929190612f88565b60405180910390a45050505050565b600073ffffffffffffffffffffffffffffffffffffffff168473ffffffffffffffffffffffffffffffffffffffff1614156112a9576040517f08c379a00000000000000000000000000000000000000000000000000000000081526004016112a090613023565b60405180910390fd5b60006112b36113cf565b90506112d4816000876112c588611ada565b6112ce88611ada565b87611b54565b8260008086815260200190815260200160002060008773ffffffffffffffffffffffffffffffffffffffff1673ffffffffffffffffffffffffffffffffffffffff16815260200190815260200160002060008282546113339190612b67565b925050819055508473ffffffffffffffffffffffffffffffffffffffff16600073ffffffffffffffffffffffffffffffffffffffff168273ffffffffffffffffffffffffffffffffffffffff167fc3d58168c5ae7397731d063d5bbf3d657854427343f4c083240f7aacaa2d0f6287876040516113b1929190612f88565b60405180910390a46113c881600087878787611b5c565b5050505050565b600033905090565b815183511461141b576040517f08c379a0000000000000000000000000000000000000000000000000000000008152600401611412906130b5565b60405180910390fd5b600073ffffffffffffffffffffffffffffffffffffffff168473ffffffffffffffffffffffffffffffffffffffff16141561148b576040517f08c379a000000000000000000000000000000000000000000000000000000000815260040161148290613147565b60405180910390fd5b60006114956113cf565b90506114a5818787878787611b54565b60005b84518110156116565760008582815181106114c6576114c5612d2a565b5b6020026020010151905060008583815181106114e5576114e4612d2a565b5b60200260200101519050600080600084815260200190815260200160002060008b73ffffffffffffffffffffffffffffffffffffffff1673ffffffffffffffffffffffffffffffffffffffff16815260200190815260200160002054905081811015611586576040517f08c379a000000000000000000000000000000000000000000000000000000000815260040161157d906131d9565b60405180910390fd5b81810360008085815260200190815260200160002060008c73ffffffffffffffffffffffffffffffffffffffff1673ffffffffffffffffffffffffffffffffffffffff168152602001908152602001600020819055508160008085815260200190815260200160002060008b73ffffffffffffffffffffffffffffffffffffffff1673ffffffffffffffffffffffffffffffffffffffff168152602001908152602001600020600082825461163b9190612b67565b925050819055505050508061164f90612bbd565b90506114a8565b508473ffffffffffffffffffffffffffffffffffffffff168673ffffffffffffffffffffffffffffffffffffffff168273ffffffffffffffffffffffffffffffffffffffff167f4a39dc06d4c0dbc64b70af90fd698a233a518aa5d07e595d983b8c0526c8f7fb87876040516116cd9291906131f9565b60405180910390a46116e3818787878787611d34565b505050505050565b8173ffffffffffffffffffffffffffffffffffffffff168373ffffffffffffffffffffffffffffffffffffffff16141561175a576040517f08c379a0000000000000000000000000000000000000000000000000000000008152600401611751906132a2565b60405180910390fd5b80600160008573ffffffffffffffffffffffffffffffffffffffff1673ffffffffffffffffffffffffffffffffffffffff16815260200190815260200160002060008473ffffffffffffffffffffffffffffffffffffffff1673ffffffffffffffffffffffffffffffffffffffff16815260200190815260200160002060006101000a81548160ff0219169083151502179055508173ffffffffffffffffffffffffffffffffffffffff168373ffffffffffffffffffffffffffffffffffffffff167f17307eab39ab6107e8899845ad3d59bd9653f200f220920489ca2b5937696c318360405161184b9190612184565b60405180910390a3505050565b600073ffffffffffffffffffffffffffffffffffffffff168473ffffffffffffffffffffffffffffffffffffffff1614156118c8576040517f08c379a00000000000000000000000000000000000000000000000000000000081526004016118bf90613147565b60405180910390fd5b60006118d26113cf565b90506118f28187876118e388611ada565b6118ec88611ada565b87611b54565b600080600086815260200190815260200160002060008873ffffffffffffffffffffffffffffffffffffffff1673ffffffffffffffffffffffffffffffffffffffff16815260200190815260200160002054905083811015611989576040517f08c379a0000000000000000000000000000000000000000000000000000000008152600401611980906131d9565b60405180910390fd5b83810360008087815260200190815260200160002060008973ffffffffffffffffffffffffffffffffffffffff1673ffffffffffffffffffffffffffffffffffffffff168152602001908152602001600020819055508360008087815260200190815260200160002060008873ffffffffffffffffffffffffffffffffffffffff1673ffffffffffffffffffffffffffffffffffffffff1681526020019081526020016000206000828254611a3e9190612b67565b925050819055508573ffffffffffffffffffffffffffffffffffffffff168773ffffffffffffffffffffffffffffffffffffffff168373ffffffffffffffffffffffffffffffffffffffff167fc3d58168c5ae7397731d063d5bbf3d657854427343f4c083240f7aacaa2d0f628888604051611abb929190612f88565b60405180910390a4611ad1828888888888611b5c565b50505050505050565b60606000600167ffffffffffffffff811115611af957611af86122d1565b5b604051908082528060200260200182016040528015611b275781602001602082028036833780820191505090505b5090508281600081518110611b3f57611b3e612d2a565b5b60200260200101818152505080915050919050565b505050505050565b611b7b8473ffffffffffffffffffffffffffffffffffffffff16611f0c565b15611d2c578373ffffffffffffffffffffffffffffffffffffffff1663f23a6e6187878686866040518663ffffffff1660e01b8152600401611bc1959493929190613317565b6020604051808303816000875af1925050508015611bfd57506040513d601f19601f82011682018060405250810190611bfa9190613386565b60015b611ca357611c096133c0565b806308c379a01415611c665750611c1e6133e2565b80611c295750611c68565b806040517f08c379a0000000000000000000000000000000000000000000000000000000008152600401611c5d9190612265565b60405180910390fd5b505b6040517f08c379a0000000000000000000000000000000000000000000000000000000008152600401611c9a906134ea565b60405180910390fd5b63f23a6e6160e01b7bffffffffffffffffffffffffffffffffffffffffffffffffffffffff1916817bffffffffffffffffffffffffffffffffffffffffffffffffffffffff191614611d2a576040517f08c379a0000000000000000000000000000000000000000000000000000000008152600401611d219061357c565b60405180910390fd5b505b505050505050565b611d538473ffffffffffffffffffffffffffffffffffffffff16611f0c565b15611f04578373ffffffffffffffffffffffffffffffffffffffff1663bc197c8187878686866040518663ffffffff1660e01b8152600401611d9995949392919061359c565b6020604051808303816000875af1925050508015611dd557506040513d601f19601f82011682018060405250810190611dd29190613386565b60015b611e7b57611de16133c0565b806308c379a01415611e3e5750611df66133e2565b80611e015750611e40565b806040517f08c379a0000000000000000000000000000000000000000000000000000000008152600401611e359190612265565b60405180910390fd5b505b6040517f08c379a0000000000000000000000000000000000000000000000000000000008152600401611e72906134ea565b60405180910390fd5b63bc197c8160e01b7bffffffffffffffffffffffffffffffffffffffffffffffffffffffff1916817bffffffffffffffffffffffffffffffffffffffffffffffffffffffff191614611f02576040517f08c379a0000000000000000000000000000000000000000000000000000000008152600401611ef99061357c565b60405180910390fd5b505b505050505050565b6000808273ffffffffffffffffffffffffffffffffffffffff163b119050919050565b828054611f3b90612b06565b90600052602060002090601f016020900481019282611f5d5760008555611fa4565b82601f10611f7657805160ff1916838001178555611fa4565b82800160010185558215611fa4579182015b82811115611fa3578251825591602001919060010190611f88565b5b509050611fb19190611fb5565b5090565b5b80821115611fce576000816000905550600101611fb6565b5090565b6000604051905090565b600080fd5b600080fd5b600073ffffffffffffffffffffffffffffffffffffffff82169050919050565b600061201182611fe6565b9050919050565b61202181612006565b811461202c57600080fd5b50565b60008135905061203e81612018565b92915050565b6000819050919050565b61205781612044565b811461206257600080fd5b50565b6000813590506120748161204e565b92915050565b6000806040838503121561209157612090611fdc565b5b600061209f8582860161202f565b92505060206120b085828601612065565b9150509250929050565b6120c381612044565b82525050565b60006020820190506120de60008301846120ba565b92915050565b60007fffffffff0000000000000000000000000000000000000000000000000000000082169050919050565b612119816120e4565b811461212457600080fd5b50565b60008135905061213681612110565b92915050565b60006020828403121561215257612151611fdc565b5b600061216084828501612127565b91505092915050565b60008115159050919050565b61217e81612169565b82525050565b60006020820190506121996000830184612175565b92915050565b6000602082840312156121b5576121b4611fdc565b5b60006121c384828501612065565b91505092915050565b600081519050919050565b600082825260208201905092915050565b60005b838110156122065780820151818401526020810190506121eb565b83811115612215576000848401525b50505050565b6000601f19601f8301169050919050565b6000612237826121cc565b61224181856121d7565b93506122518185602086016121e8565b61225a8161221b565b840191505092915050565b6000602082019050818103600083015261227f818461222c565b905092915050565b6000806040838503121561229e5761229d611fdc565b5b60006122ac85828601612065565b92505060206122bd85828601612065565b9150509250929050565b600080fd5b600080fd5b7f4e487b7100000000000000000000000000000000000000000000000000000000600052604160045260246000fd5b6123098261221b565b810181811067ffffffffffffffff82111715612328576123276122d1565b5b80604052505050565b600061233b611fd2565b90506123478282612300565b919050565b600067ffffffffffffffff821115612367576123666122d1565b5b6123708261221b565b9050602081019050919050565b82818337600083830152505050565b600061239f61239a8461234c565b612331565b9050828152602081018484840111156123bb576123ba6122cc565b5b6123c684828561237d565b509392505050565b600082601f8301126123e3576123e26122c7565b5b81356123f384826020860161238c565b91505092915050565b6000806040838503121561241357612412611fdc565b5b600083013567ffffffffffffffff81111561243157612430611fe1565b5b61243d858286016123ce565b925050602061244e85828601612065565b9150509250929050565b600067ffffffffffffffff821115612473576124726122d1565b5b602082029050602081019050919050565b600080fd5b600061249c61249784612458565b612331565b905080838252602082019050602084028301858111156124bf576124be612484565b5b835b818110156124e857806124d48882612065565b8452602084019350506020810190506124c1565b5050509392505050565b600082601f830112612507576125066122c7565b5b8135612517848260208601612489565b91505092915050565b600067ffffffffffffffff82111561253b5761253a6122d1565b5b6125448261221b565b9050602081019050919050565b600061256461255f84612520565b612331565b9050828152602081018484840111156125805761257f6122cc565b5b61258b84828561237d565b509392505050565b600082601f8301126125a8576125a76122c7565b5b81356125b8848260208601612551565b91505092915050565b600080600080600060a086880312156125dd576125dc611fdc565b5b60006125eb8882890161202f565b95505060206125fc8882890161202f565b945050604086013567ffffffffffffffff81111561261d5761261c611fe1565b5b612629888289016124f2565b935050606086013567ffffffffffffffff81111561264a57612649611fe1565b5b612656888289016124f2565b925050608086013567ffffffffffffffff81111561267757612676611fe1565b5b61268388828901612593565b9150509295509295909350565b600067ffffffffffffffff8211156126ab576126aa6122d1565b5b602082029050602081019050919050565b60006126cf6126ca84612690565b612331565b905080838252602082019050602084028301858111156126f2576126f1612484565b5b835b8181101561271b5780612707888261202f565b8452602084019350506020810190506126f4565b5050509392505050565b600082601f83011261273a576127396122c7565b5b813561274a8482602086016126bc565b91505092915050565b6000806040838503121561276a57612769611fdc565b5b600083013567ffffffffffffffff81111561278857612787611fe1565b5b61279485828601612725565b925050602083013567ffffffffffffffff8111156127b5576127b4611fe1565b5b6127c1858286016124f2565b9150509250929050565b600081519050919050565b600082825260208201905092915050565b6000819050602082019050919050565b61280081612044565b82525050565b600061281283836127f7565b60208301905092915050565b6000602082019050919050565b6000612836826127cb565b61284081856127d6565b935061284b836127e7565b8060005b8381101561287c5781516128638882612806565b975061286e8361281e565b92505060018101905061284f565b5085935050505092915050565b600060208201905081810360008301526128a3818461282b565b905092915050565b6000602082840312156128c1576128c0611fdc565b5b60006128cf8482850161202f565b91505092915050565b6128e181612006565b82525050565b60006020820190506128fc60008301846128d8565b92915050565b61290b81612169565b811461291657600080fd5b50565b60008135905061292881612902565b92915050565b6000806040838503121561294557612944611fdc565b5b60006129538582860161202f565b925050602061296485828601612919565b9150509250929050565b6000806040838503121561298557612984611fdc565b5b60006129938582860161202f565b92505060206129a48582860161202f565b9150509250929050565b600080600080600060a086880312156129ca576129c9611fdc565b5b60006129d88882890161202f565b95505060206129e98882890161202f565b94505060406129fa88828901612065565b9350506060612a0b88828901612065565b925050608086013567ffffffffffffffff811115612a2c57612a2b611fe1565b5b612a3888828901612593565b9150509295509295909350565b7f455243313135353a2062616c616e636520717565727920666f7220746865207a60008201527f65726f2061646472657373000000000000000000000000000000000000000000602082015250565b6000612aa1602b836121d7565b9150612aac82612a45565b604082019050919050565b60006020820190508181036000830152612ad081612a94565b9050919050565b7f4e487b7100000000000000000000000000000000000000000000000000000000600052602260045260246000fd5b60006002820490506001821680612b1e57607f821691505b60208210811415612b3257612b31612ad7565b5b50919050565b7f4e487b7100000000000000000000000000000000000000000000000000000000600052601160045260246000fd5b6000612b7282612044565b9150612b7d83612044565b9250827fffffffffffffffffffffffffffffffffffffffffffffffffffffffffffffffff03821115612bb257612bb1612b38565b5b828201905092915050565b6000612bc882612044565b91507fffffffffffffffffffffffffffffffffffffffffffffffffffffffffffffffff821415612bfb57612bfa612b38565b5b600182019050919050565b7f455243313135353a207472616e736665722063616c6c6572206973206e6f742060008201527f6f776e6572206e6f7220617070726f7665640000000000000000000000000000602082015250565b6000612c626032836121d7565b9150612c6d82612c06565b604082019050919050565b60006020820190508181036000830152612c9181612c55565b9050919050565b7f455243313135353a206163636f756e747320616e6420696473206c656e67746860008201527f206d69736d617463680000000000000000000000000000000000000000000000602082015250565b6000612cf46029836121d7565b9150612cff82612c98565b604082019050919050565b60006020820190508181036000830152612d2381612ce7565b9050919050565b7f4e487b7100000000000000000000000000000000000000000000000000000000600052603260045260246000fd5b6000612d6482612044565b9150612d6f83612044565b925082821015612d8257612d81612b38565b5b828203905092915050565b6000608082019050612da260008301876128d8565b612daf60208301866128d8565b612dbc60408301856120ba565b612dc960608301846120ba565b95945050505050565b7f455243313135353a2063616c6c6572206973206e6f74206f776e6572206e6f7260008201527f20617070726f7665640000000000000000000000000000000000000000000000602082015250565b6000612e2e6029836121d7565b9150612e3982612dd2565b604082019050919050565b60006020820190508181036000830152612e5d81612e21565b9050919050565b7f455243313135353a206275726e2066726f6d20746865207a65726f206164647260008201527f6573730000000000000000000000000000000000000000000000000000000000602082015250565b6000612ec06023836121d7565b9150612ecb82612e64565b604082019050919050565b60006020820190508181036000830152612eef81612eb3565b9050919050565b7f455243313135353a206275726e20616d6f756e7420657863656564732062616c60008201527f616e636500000000000000000000000000000000000000000000000000000000602082015250565b6000612f526024836121d7565b9150612f5d82612ef6565b604082019050919050565b60006020820190508181036000830152612f8181612f45565b9050919050565b6000604082019050612f9d60008301856120ba565b612faa60208301846120ba565b9392505050565b7f455243313135353a206d696e7420746f20746865207a65726f2061646472657360008201527f7300000000000000000000000000000000000000000000000000000000000000602082015250565b600061300d6021836121d7565b915061301882612fb1565b604082019050919050565b6000602082019050818103600083015261303c81613000565b9050919050565b7f455243313135353a2069647320616e6420616d6f756e7473206c656e6774682060008201527f6d69736d61746368000000000000000000000000000000000000000000000000602082015250565b600061309f6028836121d7565b91506130aa82613043565b604082019050919050565b600060208201905081810360008301526130ce81613092565b9050919050565b7f455243313135353a207472616e7366657220746f20746865207a65726f20616460008201527f6472657373000000000000000000000000000000000000000000000000000000602082015250565b60006131316025836121d7565b915061313c826130d5565b604082019050919050565b6000602082019050818103600083015261316081613124565b9050919050565b7f455243313135353a20696e73756666696369656e742062616c616e636520666f60008201527f72207472616e7366657200000000000000000000000000000000000000000000602082015250565b60006131c3602a836121d7565b91506131ce82613167565b604082019050919050565b600060208201905081810360008301526131f2816131b6565b9050919050565b60006040820190508181036000830152613213818561282b565b90508181036020830152613227818461282b565b90509392505050565b7f455243313135353a2073657474696e6720617070726f76616c2073746174757360008201527f20666f722073656c660000000000000000000000000000000000000000000000602082015250565b600061328c6029836121d7565b915061329782613230565b604082019050919050565b600060208201905081810360008301526132bb8161327f565b9050919050565b600081519050919050565b600082825260208201905092915050565b60006132e9826132c2565b6132f381856132cd565b93506133038185602086016121e8565b61330c8161221b565b840191505092915050565b600060a08201905061332c60008301886128d8565b61333960208301876128d8565b61334660408301866120ba565b61335360608301856120ba565b818103608083015261336581846132de565b90509695505050505050565b60008151905061338081612110565b92915050565b60006020828403121561339c5761339b611fdc565b5b60006133aa84828501613371565b91505092915050565b60008160e01c9050919050565b600060033d11156133df5760046000803e6133dc6000516133b3565b90505b90565b600060443d10156133f257613475565b6133fa611fd2565b60043d036004823e80513d602482011167ffffffffffffffff82111715613422575050613475565b808201805167ffffffffffffffff8111156134405750505050613475565b80602083010160043d03850181111561345d575050505050613475565b61346c82602001850186612300565b82955050505050505b90565b7f455243313135353a207472616e7366657220746f206e6f6e204552433131353560008201527f526563656976657220696d706c656d656e746572000000000000000000000000602082015250565b60006134d46034836121d7565b91506134df82613478565b604082019050919050565b60006020820190508181036000830152613503816134c7565b9050919050565b7f455243313135353a204552433131353552656365697665722072656a6563746560008201527f6420746f6b656e73000000000000000000000000000000000000000000000000602082015250565b60006135666028836121d7565b91506135718261350a565b604082019050919050565b6000602082019050818103600083015261359581613559565b9050919050565b600060a0820190506135b160008301886128d8565b6135be60208301876128d8565b81810360408301526135d0818661282b565b905081810360608301526135e4818561282b565b905081810360808301526135f881846132de565b9050969550505050505056fea264697066735822122071241cca256616d401a57f58b0bb181b9f56b81ced0545e4e4b0b1bf684a8d3f64736f6c634300080c003368747470733a2f2f67616d652e6578616d706c652f6170692f6974656d2f7b69647d2e6a736f6e",
  "immutableReferences": {},
  "source": "pragma solidity >=0.4.22 <0.9.0;\n\n\nimport \"@openzeppelin/contracts/token/ERC1155/ERC1155.sol\";\n\n\ncontract Assets is ERC1155 {\n    uint256 public currentcount = 0;\n    struct Asset{\n        string Name;\n        uint256 price;\n        uint256 id;\n    }\n    mapping (uint256 => Asset) Assets;\n    \n    address public owner;\n    struct Locked{\n       mapping(uint256=>uint256) tokenledger;\n\n    }\n    mapping(address=>Locked) totalrecord;\n    modifier onlyOwner(){\n            require(msg.sender == owner);\n            \n            _;\n    }\n    event unLock(address from,address to,uint256 id,uint256 value);\n    constructor() public ERC1155(\"https://game.example/api/item/{id}.json\") {\n             owner = tx.origin;\n    }\n\n    function addAsset(string memory assetname,uint256 price) onlyOwner external returns (uint256)  {\n        Asset memory asset = Asset(assetname,price,currentcount);\n        Assets[currentcount] = asset;\n        return currentcount++;\n    }\n\n    function mint(uint256 id,uint256 amount) external onlyOwner {\n        \n        _mint(tx.origin,id,amount,\"\");\n\n    }\n\n    function withdraw() public payable onlyOwner {\n         address payable  own = payable(owner);\n       own.transfer(address(this).balance); \n    }\n      function changeowner(address newowner) onlyOwner public{\n        owner = newowner;\n    }\n\n    function lock(uint256 assetid,uint256 amount) public onlyOwner{\n        require(balanceOf(tx.origin,assetid) >= amount);\n        _burn(tx.origin,assetid,amount);\n        totalrecord[tx.origin].tokenledger[assetid]+=amount;\n\n    }\n\n    function unlock(uint256 assetid,uint256 amount) public onlyOwner{\n        require(totalrecord[tx.origin].tokenledger[assetid] >= amount);\n        totalrecord[tx.origin].tokenledger[assetid]-=amount;\n        emit unLock(address(this), tx.origin, assetid, amount);\n        _mint(tx.origin,assetid,amount,\"\");\n\n    }\n\n    function updatelock(uint256 assetid,uint256 amount) external onlyOwner{\n        uint256 currentlock = totalrecord[tx.origin].tokenledger[assetid];\n        if(amount >currentlock ){\n            lock(assetid,amount-currentlock);\n        }\n        else if(amount < currentlock) {\n            unlock(assetid, currentlock-amount);\n        }\n\n    }\n\n\n}",
  "sourcePath": "/home/kali/Documents/nomadcontract/contracts/gameEip1155.sol",
  "compiler": {
    "name": "solc",
    "version": "0.8.12+commit.f00d7308.Emscripten.clang"
  },
  "schemaVersion": "3.4.5",
  "updatedAt": "2022-09-16T20:55:20.406Z",
  "devdoc": {
    "kind": "dev",
    "methods": {
      "balanceOf(address,uint256)": {
        "details": "See {IERC1155-balanceOf}. Requirements: - `account` cannot be the zero address."
      },
      "balanceOfBatch(address[],uint256[])": {
        "details": "See {IERC1155-balanceOfBatch}. Requirements: - `accounts` and `ids` must have the same length."
      },
      "isApprovedForAll(address,address)": {
        "details": "See {IERC1155-isApprovedForAll}."
      },
      "safeBatchTransferFrom(address,address,uint256[],uint256[],bytes)": {
        "details": "See {IERC1155-safeBatchTransferFrom}."
      },
      "safeTransferFrom(address,address,uint256,uint256,bytes)": {
        "details": "See {IERC1155-safeTransferFrom}."
      },
      "setApprovalForAll(address,bool)": {
        "details": "See {IERC1155-setApprovalForAll}."
      },
      "supportsInterface(bytes4)": {
        "details": "See {IERC165-supportsInterface}."
      },
      "uri(uint256)": {
        "details": "See {IERC1155MetadataURI-uri}. This implementation returns the same URI for *all* token types. It relies on the token type ID substitution mechanism https://eips.ethereum.org/EIPS/eip-1155#metadata[defined in the EIP]. Clients calling this function must replace the `\\{id\\}` substring with the actual token type ID."
      }
    },
    "version": 1
  },
  "userdoc": {
    "kind": "user",
    "methods": {},
    "version": 1
  }
}