{
  "contractName": "Dollarino",
  "abi": [
    {
      "inputs": [],
      "stateMutability": "nonpayable",
      "type": "constructor"
    },
    {
      "anonymous": false,
      "inputs": [
        {
          "indexed": true,
          "internalType": "address",
          "name": "owner",
          "type": "address"
        },
        {
          "indexed": true,
          "internalType": "address",
          "name": "spender",
          "type": "address"
        },
        {
          "indexed": false,
          "internalType": "uint256",
          "name": "value",
          "type": "uint256"
        }
      ],
      "name": "Approval",
      "type": "event"
    },
    {
      "anonymous": false,
      "inputs": [
        {
          "indexed": false,
          "internalType": "uint256",
          "name": "num",
          "type": "uint256"
        }
      ],
      "name": "Rand",
      "type": "event"
    },
    {
      "anonymous": false,
      "inputs": [
        {
          "indexed": true,
          "internalType": "address",
          "name": "from",
          "type": "address"
        },
        {
          "indexed": true,
          "internalType": "address",
          "name": "to",
          "type": "address"
        },
        {
          "indexed": false,
          "internalType": "uint256",
          "name": "value",
          "type": "uint256"
        }
      ],
      "name": "Transfer",
      "type": "event"
    },
    {
      "inputs": [
        {
          "internalType": "address",
          "name": "owner",
          "type": "address"
        },
        {
          "internalType": "address",
          "name": "spender",
          "type": "address"
        }
      ],
      "name": "allowance",
      "outputs": [
        {
          "internalType": "uint256",
          "name": "",
          "type": "uint256"
        }
      ],
      "stateMutability": "view",
      "type": "function",
      "constant": true
    },
    {
      "inputs": [
        {
          "internalType": "address",
          "name": "spender",
          "type": "address"
        },
        {
          "internalType": "uint256",
          "name": "amount",
          "type": "uint256"
        }
      ],
      "name": "approve",
      "outputs": [
        {
          "internalType": "bool",
          "name": "",
          "type": "bool"
        }
      ],
      "stateMutability": "nonpayable",
      "type": "function"
    },
    {
      "inputs": [
        {
          "internalType": "address",
          "name": "account",
          "type": "address"
        }
      ],
      "name": "balanceOf",
      "outputs": [
        {
          "internalType": "uint256",
          "name": "",
          "type": "uint256"
        }
      ],
      "stateMutability": "view",
      "type": "function",
      "constant": true
    },
    {
      "inputs": [],
      "name": "decimals",
      "outputs": [
        {
          "internalType": "uint8",
          "name": "",
          "type": "uint8"
        }
      ],
      "stateMutability": "view",
      "type": "function",
      "constant": true
    },
    {
      "inputs": [
        {
          "internalType": "address",
          "name": "spender",
          "type": "address"
        },
        {
          "internalType": "uint256",
          "name": "subtractedValue",
          "type": "uint256"
        }
      ],
      "name": "decreaseAllowance",
      "outputs": [
        {
          "internalType": "bool",
          "name": "",
          "type": "bool"
        }
      ],
      "stateMutability": "nonpayable",
      "type": "function"
    },
    {
      "inputs": [
        {
          "internalType": "address",
          "name": "spender",
          "type": "address"
        },
        {
          "internalType": "uint256",
          "name": "addedValue",
          "type": "uint256"
        }
      ],
      "name": "increaseAllowance",
      "outputs": [
        {
          "internalType": "bool",
          "name": "",
          "type": "bool"
        }
      ],
      "stateMutability": "nonpayable",
      "type": "function"
    },
    {
      "inputs": [],
      "name": "name",
      "outputs": [
        {
          "internalType": "string",
          "name": "",
          "type": "string"
        }
      ],
      "stateMutability": "view",
      "type": "function",
      "constant": true
    },
    {
      "inputs": [],
      "name": "owner",
      "outputs": [
        {
          "internalType": "address",
          "name": "",
          "type": "address"
        }
      ],
      "stateMutability": "view",
      "type": "function",
      "constant": true
    },
    {
      "inputs": [],
      "name": "symbol",
      "outputs": [
        {
          "internalType": "string",
          "name": "",
          "type": "string"
        }
      ],
      "stateMutability": "view",
      "type": "function",
      "constant": true
    },
    {
      "inputs": [],
      "name": "totalSupply",
      "outputs": [
        {
          "internalType": "uint256",
          "name": "",
          "type": "uint256"
        }
      ],
      "stateMutability": "view",
      "type": "function",
      "constant": true
    },
    {
      "inputs": [
        {
          "internalType": "address",
          "name": "to",
          "type": "address"
        },
        {
          "internalType": "uint256",
          "name": "amount",
          "type": "uint256"
        }
      ],
      "name": "transfer",
      "outputs": [
        {
          "internalType": "bool",
          "name": "",
          "type": "bool"
        }
      ],
      "stateMutability": "nonpayable",
      "type": "function"
    },
    {
      "inputs": [
        {
          "internalType": "address",
          "name": "from",
          "type": "address"
        },
        {
          "internalType": "address",
          "name": "to",
          "type": "address"
        },
        {
          "internalType": "uint256",
          "name": "amount",
          "type": "uint256"
        }
      ],
      "name": "transferFrom",
      "outputs": [
        {
          "internalType": "bool",
          "name": "",
          "type": "bool"
        }
      ],
      "stateMutability": "nonpayable",
      "type": "function"
    },
    {
      "inputs": [
        {
          "internalType": "uint256",
          "name": "amount",
          "type": "uint256"
        },
        {
          "internalType": "address",
          "name": "to",
          "type": "address"
        }
      ],
      "name": "mintnew",
      "outputs": [],
      "stateMutability": "nonpayable",
      "type": "function"
    },
    {
      "inputs": [
        {
          "internalType": "address",
          "name": "newowner",
          "type": "address"
        }
      ],
      "name": "changeowner",
      "outputs": [],
      "stateMutability": "nonpayable",
      "type": "function"
    },
    {
      "inputs": [
        {
          "internalType": "address",
          "name": "owner",
          "type": "address"
        },
        {
          "internalType": "uint256",
          "name": "amount",
          "type": "uint256"
        }
      ],
      "name": "subtract",
      "outputs": [],
      "stateMutability": "nonpayable",
      "type": "function"
    },
    {
      "inputs": [
        {
          "internalType": "address",
          "name": "owner",
          "type": "address"
        },
        {
          "internalType": "uint256",
          "name": "amount",
          "type": "uint256"
        }
      ],
      "name": "burn",
      "outputs": [],
      "stateMutability": "nonpayable",
      "type": "function"
    },
    {
      "inputs": [
        {
          "internalType": "uint256",
          "name": "amount",
          "type": "uint256"
        }
      ],
      "name": "minto",
      "outputs": [],
      "stateMutability": "nonpayable",
      "type": "function"
    },
    {
      "inputs": [
        {
          "internalType": "uint256",
          "name": "amount",
          "type": "uint256"
        }
      ],
      "name": "burnto",
      "outputs": [],
      "stateMutability": "nonpayable",
      "type": "function"
    },
    {
      "inputs": [],
      "name": "getRand",
      "outputs": [
        {
          "internalType": "uint256",
          "name": "",
          "type": "uint256"
        }
      ],
      "stateMutability": "nonpayable",
      "type": "function"
    }
  ],
  "bytecode": "0x60806040523480156200001157600080fd5b506040518060400160405280600981526020017f446f6c6c6172696e6f00000000000000000000000000000000000000000000008152506040518060400160405280600981526020017f446f6c6c6172696e6f0000000000000000000000000000000000000000000000815250816003908051906020019062000096929190620000f9565b508060049080519060200190620000af929190620000f9565b50505032600560006101000a81548173ffffffffffffffffffffffffffffffffffffffff021916908373ffffffffffffffffffffffffffffffffffffffff1602179055506200020e565b8280546200010790620001d8565b90600052602060002090601f0160209004810192826200012b576000855562000177565b82601f106200014657805160ff191683800117855562000177565b8280016001018555821562000177579182015b828111156200017657825182559160200191906001019062000159565b5b5090506200018691906200018a565b5090565b5b80821115620001a55760008160009055506001016200018b565b5090565b7f4e487b7100000000000000000000000000000000000000000000000000000000600052602260045260246000fd5b60006002820490506001821680620001f157607f821691505b60208210811415620002085762000207620001a9565b5b50919050565b611e07806200021e6000396000f3fe608060405234801561001057600080fd5b50600436106101215760003560e01c806368c6b11a116100ad578063a457c2d711610071578063a457c2d71461030a578063a9059cbb1461033a578063d8bf79351461036a578063dd62ed3e14610386578063eb4a0223146103b657610121565b806368c6b11a1461026657806370a08231146102825780638da5cb5b146102b257806395d89b41146102d05780639dc29fac146102ee57610121565b806323b872dd116100f457806323b872dd146101ae578063313ce567146101de57806339509351146101fc578063600bc4ea1461022c578063662e4ee41461024a57610121565b806305208fb21461012657806306fdde0314610142578063095ea7b31461016057806318160ddd14610190575b600080fd5b610140600480360381019061013b919061135b565b6103d2565b005b61014a6103df565b6040516101579190611421565b60405180910390f35b61017a600480360381019061017591906114a1565b610471565b60405161018791906114fc565b60405180910390f35b610198610494565b6040516101a59190611526565b60405180910390f35b6101c860048036038101906101c39190611541565b61049e565b6040516101d591906114fc565b60405180910390f35b6101e66104cd565b6040516101f391906115b0565b60405180910390f35b610216600480360381019061021191906114a1565b6104d6565b60405161022391906114fc565b60405180910390f35b610234610580565b6040516102419190611526565b60405180910390f35b610264600480360381019061025f91906115cb565b610674565b005b610280600480360381019061027b91906114a1565b610712565b005b61029c600480360381019061029791906115cb565b61077a565b6040516102a99190611526565b60405180910390f35b6102ba6107c2565b6040516102c79190611607565b60405180910390f35b6102d86107e8565b6040516102e59190611421565b60405180910390f35b610308600480360381019061030391906114a1565b61087a565b005b610324600480360381019061031f91906114a1565b6108e2565b60405161033191906114fc565b60405180910390f35b610354600480360381019061034f91906114a1565b6109cc565b60405161036191906114fc565b60405180910390f35b610384600480360381019061037f919061135b565b6109ef565b005b6103a0600480360381019061039b9190611622565b610a10565b6040516103ad9190611526565b60405180910390f35b6103d060048036038101906103cb9190611662565b610a97565b005b6103dc3282610aff565b50565b6060600380546103ee906116d1565b80601f016020809104026020016040519081016040528092919081815260200182805461041a906116d1565b80156104675780601f1061043c57610100808354040283529160200191610467565b820191906000526020600020905b81548152906001019060200180831161044a57829003601f168201915b5050505050905090565b60008061047c610c5f565b9050610489818585610c67565b600191505092915050565b6000600254905090565b6000806104a9610c5f565b90506104b6858285610e32565b6104c1858585610ebe565b60019150509392505050565b60006012905090565b6000806104e1610c5f565b9050610575818585600160008673ffffffffffffffffffffffffffffffffffffffff1673ffffffffffffffffffffffffffffffffffffffff16815260200190815260200160002060008973ffffffffffffffffffffffffffffffffffffffff1673ffffffffffffffffffffffffffffffffffffffff168152602001908152602001600020546105709190611732565b610c67565b600191505092915050565b6000606461058d3261077a565b1161059757600080fd5b6105a232606461113f565b6000606244426040516020016105b99291906117a9565b6040516020818303038152906040528051906020012060001c6105dc9190611804565b90506000600e826105ed9190611804565b1415610604576105ff32610190610aff565b610636565b60006003826106139190611804565b141561062957610624326096610aff565b610635565b610634326028610aff565b5b5b7f12c22424800c33e7b2299cedb98ca14cd96ba863217241cf3841bb103d84b717816040516106659190611526565b60405180910390a18091505090565b600560009054906101000a900473ffffffffffffffffffffffffffffffffffffffff1673ffffffffffffffffffffffffffffffffffffffff163373ffffffffffffffffffffffffffffffffffffffff16146106ce57600080fd5b80600560006101000a81548173ffffffffffffffffffffffffffffffffffffffff021916908373ffffffffffffffffffffffffffffffffffffffff16021790555050565b600560009054906101000a900473ffffffffffffffffffffffffffffffffffffffff1673ffffffffffffffffffffffffffffffffffffffff163373ffffffffffffffffffffffffffffffffffffffff161461076c57600080fd5b610776828261113f565b5050565b60008060008373ffffffffffffffffffffffffffffffffffffffff1673ffffffffffffffffffffffffffffffffffffffff168152602001908152602001600020549050919050565b600560009054906101000a900473ffffffffffffffffffffffffffffffffffffffff1681565b6060600480546107f7906116d1565b80601f0160208091040260200160405190810160405280929190818152602001828054610823906116d1565b80156108705780601f1061084557610100808354040283529160200191610870565b820191906000526020600020905b81548152906001019060200180831161085357829003601f168201915b5050505050905090565b600560009054906101000a900473ffffffffffffffffffffffffffffffffffffffff1673ffffffffffffffffffffffffffffffffffffffff163373ffffffffffffffffffffffffffffffffffffffff16146108d457600080fd5b6108de828261113f565b5050565b6000806108ed610c5f565b90506000600160008373ffffffffffffffffffffffffffffffffffffffff1673ffffffffffffffffffffffffffffffffffffffff16815260200190815260200160002060008673ffffffffffffffffffffffffffffffffffffffff1673ffffffffffffffffffffffffffffffffffffffff168152602001908152602001600020549050838110156109b3576040517f08c379a00000000000000000000000000000000000000000000000000000000081526004016109aa906118a7565b60405180910390fd5b6109c08286868403610c67565b60019250505092915050565b6000806109d7610c5f565b90506109e4818585610ebe565b600191505092915050565b806109f93261077a565b11610a0357600080fd5b610a0d328261113f565b50565b6000600160008473ffffffffffffffffffffffffffffffffffffffff1673ffffffffffffffffffffffffffffffffffffffff16815260200190815260200160002060008373ffffffffffffffffffffffffffffffffffffffff1673ffffffffffffffffffffffffffffffffffffffff16815260200190815260200160002054905092915050565b600560009054906101000a900473ffffffffffffffffffffffffffffffffffffffff1673ffffffffffffffffffffffffffffffffffffffff163373ffffffffffffffffffffffffffffffffffffffff1614610af157600080fd5b610afb8183610aff565b5050565b600073ffffffffffffffffffffffffffffffffffffffff168273ffffffffffffffffffffffffffffffffffffffff161415610b6f576040517f08c379a0000000000000000000000000000000000000000000000000000000008152600401610b6690611913565b60405180910390fd5b610b7b60008383611316565b8060026000828254610b8d9190611732565b92505081905550806000808473ffffffffffffffffffffffffffffffffffffffff1673ffffffffffffffffffffffffffffffffffffffff1681526020019081526020016000206000828254610be29190611732565b925050819055508173ffffffffffffffffffffffffffffffffffffffff16600073ffffffffffffffffffffffffffffffffffffffff167fddf252ad1be2c89b69c2b068fc378daa952ba7f163c4a11628f55a4df523b3ef83604051610c479190611526565b60405180910390a3610c5b6000838361131b565b5050565b600033905090565b600073ffffffffffffffffffffffffffffffffffffffff168373ffffffffffffffffffffffffffffffffffffffff161415610cd7576040517f08c379a0000000000000000000000000000000000000000000000000000000008152600401610cce906119a5565b60405180910390fd5b600073ffffffffffffffffffffffffffffffffffffffff168273ffffffffffffffffffffffffffffffffffffffff161415610d47576040517f08c379a0000000000000000000000000000000000000000000000000000000008152600401610d3e90611a37565b60405180910390fd5b80600160008573ffffffffffffffffffffffffffffffffffffffff1673ffffffffffffffffffffffffffffffffffffffff16815260200190815260200160002060008473ffffffffffffffffffffffffffffffffffffffff1673ffffffffffffffffffffffffffffffffffffffff168152602001908152602001600020819055508173ffffffffffffffffffffffffffffffffffffffff168373ffffffffffffffffffffffffffffffffffffffff167f8c5be1e5ebec7d5bd14f71427d1e84f3dd0314c0f7b2291e5b200ac8c7c3b92583604051610e259190611526565b60405180910390a3505050565b6000610e3e8484610a10565b90507fffffffffffffffffffffffffffffffffffffffffffffffffffffffffffffffff8114610eb85781811015610eaa576040517f08c379a0000000000000000000000000000000000000000000000000000000008152600401610ea190611aa3565b60405180910390fd5b610eb78484848403610c67565b5b50505050565b600073ffffffffffffffffffffffffffffffffffffffff168373ffffffffffffffffffffffffffffffffffffffff161415610f2e576040517f08c379a0000000000000000000000000000000000000000000000000000000008152600401610f2590611b35565b60405180910390fd5b600073ffffffffffffffffffffffffffffffffffffffff168273ffffffffffffffffffffffffffffffffffffffff161415610f9e576040517f08c379a0000000000000000000000000000000000000000000000000000000008152600401610f9590611bc7565b60405180910390fd5b610fa9838383611316565b60008060008573ffffffffffffffffffffffffffffffffffffffff1673ffffffffffffffffffffffffffffffffffffffff1681526020019081526020016000205490508181101561102f576040517f08c379a000000000000000000000000000000000000000000000000000000000815260040161102690611c59565b60405180910390fd5b8181036000808673ffffffffffffffffffffffffffffffffffffffff1673ffffffffffffffffffffffffffffffffffffffff16815260200190815260200160002081905550816000808573ffffffffffffffffffffffffffffffffffffffff1673ffffffffffffffffffffffffffffffffffffffff16815260200190815260200160002060008282546110c29190611732565b925050819055508273ffffffffffffffffffffffffffffffffffffffff168473ffffffffffffffffffffffffffffffffffffffff167fddf252ad1be2c89b69c2b068fc378daa952ba7f163c4a11628f55a4df523b3ef846040516111269190611526565b60405180910390a361113984848461131b565b50505050565b600073ffffffffffffffffffffffffffffffffffffffff168273ffffffffffffffffffffffffffffffffffffffff1614156111af576040517f08c379a00000000000000000000000000000000000000000000000000000000081526004016111a690611ceb565b60405180910390fd5b6111bb82600083611316565b60008060008473ffffffffffffffffffffffffffffffffffffffff1673ffffffffffffffffffffffffffffffffffffffff16815260200190815260200160002054905081811015611241576040517f08c379a000000000000000000000000000000000000000000000000000000000815260040161123890611d7d565b60405180910390fd5b8181036000808573ffffffffffffffffffffffffffffffffffffffff1673ffffffffffffffffffffffffffffffffffffffff1681526020019081526020016000208190555081600260008282546112989190611d9d565b92505081905550600073ffffffffffffffffffffffffffffffffffffffff168373ffffffffffffffffffffffffffffffffffffffff167fddf252ad1be2c89b69c2b068fc378daa952ba7f163c4a11628f55a4df523b3ef846040516112fd9190611526565b60405180910390a36113118360008461131b565b505050565b505050565b505050565b600080fd5b6000819050919050565b61133881611325565b811461134357600080fd5b50565b6000813590506113558161132f565b92915050565b60006020828403121561137157611370611320565b5b600061137f84828501611346565b91505092915050565b600081519050919050565b600082825260208201905092915050565b60005b838110156113c25780820151818401526020810190506113a7565b838111156113d1576000848401525b50505050565b6000601f19601f8301169050919050565b60006113f382611388565b6113fd8185611393565b935061140d8185602086016113a4565b611416816113d7565b840191505092915050565b6000602082019050818103600083015261143b81846113e8565b905092915050565b600073ffffffffffffffffffffffffffffffffffffffff82169050919050565b600061146e82611443565b9050919050565b61147e81611463565b811461148957600080fd5b50565b60008135905061149b81611475565b92915050565b600080604083850312156114b8576114b7611320565b5b60006114c68582860161148c565b92505060206114d785828601611346565b9150509250929050565b60008115159050919050565b6114f6816114e1565b82525050565b600060208201905061151160008301846114ed565b92915050565b61152081611325565b82525050565b600060208201905061153b6000830184611517565b92915050565b60008060006060848603121561155a57611559611320565b5b60006115688682870161148c565b93505060206115798682870161148c565b925050604061158a86828701611346565b9150509250925092565b600060ff82169050919050565b6115aa81611594565b82525050565b60006020820190506115c560008301846115a1565b92915050565b6000602082840312156115e1576115e0611320565b5b60006115ef8482850161148c565b91505092915050565b61160181611463565b82525050565b600060208201905061161c60008301846115f8565b92915050565b6000806040838503121561163957611638611320565b5b60006116478582860161148c565b92505060206116588582860161148c565b9150509250929050565b6000806040838503121561167957611678611320565b5b600061168785828601611346565b92505060206116988582860161148c565b9150509250929050565b7f4e487b7100000000000000000000000000000000000000000000000000000000600052602260045260246000fd5b600060028204905060018216806116e957607f821691505b602082108114156116fd576116fc6116a2565b5b50919050565b7f4e487b7100000000000000000000000000000000000000000000000000000000600052601160045260246000fd5b600061173d82611325565b915061174883611325565b9250827fffffffffffffffffffffffffffffffffffffffffffffffffffffffffffffffff0382111561177d5761177c611703565b5b828201905092915050565b6000819050919050565b6117a361179e82611325565b611788565b82525050565b60006117b58285611792565b6020820191506117c58284611792565b6020820191508190509392505050565b7f4e487b7100000000000000000000000000000000000000000000000000000000600052601260045260246000fd5b600061180f82611325565b915061181a83611325565b92508261182a576118296117d5565b5b828206905092915050565b7f45524332303a2064656372656173656420616c6c6f77616e63652062656c6f7760008201527f207a65726f000000000000000000000000000000000000000000000000000000602082015250565b6000611891602583611393565b915061189c82611835565b604082019050919050565b600060208201905081810360008301526118c081611884565b9050919050565b7f45524332303a206d696e7420746f20746865207a65726f206164647265737300600082015250565b60006118fd601f83611393565b9150611908826118c7565b602082019050919050565b6000602082019050818103600083015261192c816118f0565b9050919050565b7f45524332303a20617070726f76652066726f6d20746865207a65726f2061646460008201527f7265737300000000000000000000000000000000000000000000000000000000602082015250565b600061198f602483611393565b915061199a82611933565b604082019050919050565b600060208201905081810360008301526119be81611982565b9050919050565b7f45524332303a20617070726f766520746f20746865207a65726f20616464726560008201527f7373000000000000000000000000000000000000000000000000000000000000602082015250565b6000611a21602283611393565b9150611a2c826119c5565b604082019050919050565b60006020820190508181036000830152611a5081611a14565b9050919050565b7f45524332303a20696e73756666696369656e7420616c6c6f77616e6365000000600082015250565b6000611a8d601d83611393565b9150611a9882611a57565b602082019050919050565b60006020820190508181036000830152611abc81611a80565b9050919050565b7f45524332303a207472616e736665722066726f6d20746865207a65726f20616460008201527f6472657373000000000000000000000000000000000000000000000000000000602082015250565b6000611b1f602583611393565b9150611b2a82611ac3565b604082019050919050565b60006020820190508181036000830152611b4e81611b12565b9050919050565b7f45524332303a207472616e7366657220746f20746865207a65726f206164647260008201527f6573730000000000000000000000000000000000000000000000000000000000602082015250565b6000611bb1602383611393565b9150611bbc82611b55565b604082019050919050565b60006020820190508181036000830152611be081611ba4565b9050919050565b7f45524332303a207472616e7366657220616d6f756e742065786365656473206260008201527f616c616e63650000000000000000000000000000000000000000000000000000602082015250565b6000611c43602683611393565b9150611c4e82611be7565b604082019050919050565b60006020820190508181036000830152611c7281611c36565b9050919050565b7f45524332303a206275726e2066726f6d20746865207a65726f2061646472657360008201527f7300000000000000000000000000000000000000000000000000000000000000602082015250565b6000611cd5602183611393565b9150611ce082611c79565b604082019050919050565b60006020820190508181036000830152611d0481611cc8565b9050919050565b7f45524332303a206275726e20616d6f756e7420657863656564732062616c616e60008201527f6365000000000000000000000000000000000000000000000000000000000000602082015250565b6000611d67602283611393565b9150611d7282611d0b565b604082019050919050565b60006020820190508181036000830152611d9681611d5a565b9050919050565b6000611da882611325565b9150611db383611325565b925082821015611dc657611dc5611703565b5b82820390509291505056fea2646970667358221220d87840dddfb21eb1d1c7af4bb18e3ae2a2cc07e1a3496c4d6b6b28a7beaad59264736f6c634300080c0033",
  "immutableReferences": {},
  "source": "pragma solidity ^0.8.0;\n\nimport \"@openzeppelin/contracts/token/ERC20/ERC20.sol\";\n\ncontract Dollarino is ERC20 {\n       address public  owner;\n      modifier onlyOwner(){\n            require(msg.sender == owner);\n            _;\n    }\n    event Rand(uint num);\n\n    constructor() ERC20(\"Dollarino\", \"Dollarino\") {\n        owner=tx.origin;\n    }\n    \n    function mintnew(uint256 amount,address to) onlyOwner external{\n          _mint(to, amount);\n    }\n\n    function changeowner(address newowner) onlyOwner public{\n        owner = newowner;\n    }\n\n    function subtract(address owner,uint256 amount) onlyOwner external{\n        _burn(owner,amount);\n    }\n     function burn(address owner,uint256 amount) onlyOwner external{\n        _burn(owner,amount);\n    }\n\n    function minto(uint256 amount)  external{\n        \n        _mint(tx.origin,amount);\n        \n    }\n\n    function burnto(uint256 amount) external{\n        require(balanceOf(tx.origin) > amount);\n        _burn(tx.origin,amount);\n    }\n\n    function getRand() public returns(uint) {\n        require(balanceOf(tx.origin) > 100);\n        _burn(tx.origin,100);\n        uint rand =  uint(keccak256(abi.encodePacked(block.difficulty, block.timestamp)))%98;\n        if(rand%14 == 0){\n          _mint(tx.origin,400);  \n        }\n        else if(rand%3 ==0){\n            \n          _mint(tx.origin,150);  \n        \n        } \n\n        else{\n            _mint(tx.origin,40);\n        }\n        emit Rand(rand);\n        return rand;       \n        \n    }\n\n}\n",
  "sourcePath": "/home/kali/Documents/nomadcontract/contracts/Dollarino.sol",
  "compiler": {
    "name": "solc",
    "version": "0.8.12+commit.f00d7308.Emscripten.clang"
  },
  "schemaVersion": "3.4.5",
  "updatedAt": "2022-10-10T21:29:14.596Z",
  "networkType": "ethereum",
  "devdoc": {
    "kind": "dev",
    "methods": {
      "allowance(address,address)": {
        "details": "See {IERC20-allowance}."
      },
      "approve(address,uint256)": {
        "details": "See {IERC20-approve}. NOTE: If `amount` is the maximum `uint256`, the allowance is not updated on `transferFrom`. This is semantically equivalent to an infinite approval. Requirements: - `spender` cannot be the zero address."
      },
      "balanceOf(address)": {
        "details": "See {IERC20-balanceOf}."
      },
      "decimals()": {
        "details": "Returns the number of decimals used to get its user representation. For example, if `decimals` equals `2`, a balance of `505` tokens should be displayed to a user as `5.05` (`505 / 10 ** 2`). Tokens usually opt for a value of 18, imitating the relationship between Ether and Wei. This is the value {ERC20} uses, unless this function is overridden; NOTE: This information is only used for _display_ purposes: it in no way affects any of the arithmetic of the contract, including {IERC20-balanceOf} and {IERC20-transfer}."
      },
      "decreaseAllowance(address,uint256)": {
        "details": "Atomically decreases the allowance granted to `spender` by the caller. This is an alternative to {approve} that can be used as a mitigation for problems described in {IERC20-approve}. Emits an {Approval} event indicating the updated allowance. Requirements: - `spender` cannot be the zero address. - `spender` must have allowance for the caller of at least `subtractedValue`."
      },
      "increaseAllowance(address,uint256)": {
        "details": "Atomically increases the allowance granted to `spender` by the caller. This is an alternative to {approve} that can be used as a mitigation for problems described in {IERC20-approve}. Emits an {Approval} event indicating the updated allowance. Requirements: - `spender` cannot be the zero address."
      },
      "name()": {
        "details": "Returns the name of the token."
      },
      "symbol()": {
        "details": "Returns the symbol of the token, usually a shorter version of the name."
      },
      "totalSupply()": {
        "details": "See {IERC20-totalSupply}."
      },
      "transfer(address,uint256)": {
        "details": "See {IERC20-transfer}. Requirements: - `to` cannot be the zero address. - the caller must have a balance of at least `amount`."
      },
      "transferFrom(address,address,uint256)": {
        "details": "See {IERC20-transferFrom}. Emits an {Approval} event indicating the updated allowance. This is not required by the EIP. See the note at the beginning of {ERC20}. NOTE: Does not update the allowance if the current allowance is the maximum `uint256`. Requirements: - `from` and `to` cannot be the zero address. - `from` must have a balance of at least `amount`. - the caller must have allowance for ``from``'s tokens of at least `amount`."
      }
    },
    "version": 1
  },
  "userdoc": {
    "kind": "user",
    "methods": {},
    "version": 1
  }
}