{
  "contractName": "NomadMain",
  "abi": [
    {
      "inputs": [],
      "stateMutability": "nonpayable",
      "type": "constructor"
    },
    {
      "inputs": [
        {
          "internalType": "uint256",
          "name": "",
          "type": "uint256"
        }
      ],
      "name": "assets",
      "outputs": [
        {
          "internalType": "string",
          "name": "Name",
          "type": "string"
        },
        {
          "internalType": "uint256",
          "name": "id",
          "type": "uint256"
        },
        {
          "internalType": "address",
          "name": "contractadd",
          "type": "address"
        },
        {
          "internalType": "uint256",
          "name": "price",
          "type": "uint256"
        },
        {
          "internalType": "bool",
          "name": "tokentype",
          "type": "bool"
        }
      ],
      "stateMutability": "view",
      "type": "function",
      "constant": true
    },
    {
      "inputs": [],
      "name": "currentcount",
      "outputs": [
        {
          "internalType": "uint256",
          "name": "",
          "type": "uint256"
        }
      ],
      "stateMutability": "view",
      "type": "function",
      "constant": true
    },
    {
      "inputs": [
        {
          "internalType": "address",
          "name": "",
          "type": "address"
        }
      ],
      "name": "gameuser",
      "outputs": [
        {
          "internalType": "bool",
          "name": "gamestarted",
          "type": "bool"
        },
        {
          "internalType": "uint256",
          "name": "position",
          "type": "uint256"
        },
        {
          "internalType": "uint256",
          "name": "health",
          "type": "uint256"
        },
        {
          "internalType": "uint256",
          "name": "sleep",
          "type": "uint256"
        },
        {
          "internalType": "uint256",
          "name": "food",
          "type": "uint256"
        },
        {
          "internalType": "uint256",
          "name": "lastmoved",
          "type": "uint256"
        },
        {
          "internalType": "uint256",
          "name": "lastcalled",
          "type": "uint256"
        }
      ],
      "stateMutability": "view",
      "type": "function",
      "constant": true
    },
    {
      "inputs": [
        {
          "internalType": "address",
          "name": "",
          "type": "address"
        }
      ],
      "name": "letgame",
      "outputs": [
        {
          "internalType": "bool",
          "name": "",
          "type": "bool"
        }
      ],
      "stateMutability": "view",
      "type": "function",
      "constant": true
    },
    {
      "inputs": [],
      "name": "maincurrency",
      "outputs": [
        {
          "internalType": "address",
          "name": "",
          "type": "address"
        }
      ],
      "stateMutability": "view",
      "type": "function",
      "constant": true
    },
    {
      "inputs": [
        {
          "internalType": "uint256",
          "name": "",
          "type": "uint256"
        }
      ],
      "name": "markets",
      "outputs": [
        {
          "internalType": "string",
          "name": "name",
          "type": "string"
        },
        {
          "internalType": "address",
          "name": "owner",
          "type": "address"
        },
        {
          "internalType": "uint256",
          "name": "assettype",
          "type": "uint256"
        },
        {
          "internalType": "uint256",
          "name": "price",
          "type": "uint256"
        },
        {
          "internalType": "uint256",
          "name": "boost",
          "type": "uint256"
        },
        {
          "internalType": "uint256",
          "name": "position",
          "type": "uint256"
        },
        {
          "internalType": "uint256",
          "name": "marketprice",
          "type": "uint256"
        },
        {
          "internalType": "bool",
          "name": "onsale",
          "type": "bool"
        }
      ],
      "stateMutability": "view",
      "type": "function",
      "constant": true
    },
    {
      "inputs": [],
      "name": "movedifference",
      "outputs": [
        {
          "internalType": "uint256",
          "name": "",
          "type": "uint256"
        }
      ],
      "stateMutability": "view",
      "type": "function",
      "constant": true
    },
    {
      "inputs": [],
      "name": "owner",
      "outputs": [
        {
          "internalType": "address",
          "name": "",
          "type": "address"
        }
      ],
      "stateMutability": "view",
      "type": "function",
      "constant": true
    },
    {
      "inputs": [],
      "name": "totalisland",
      "outputs": [
        {
          "internalType": "uint256",
          "name": "",
          "type": "uint256"
        }
      ],
      "stateMutability": "view",
      "type": "function",
      "constant": true
    },
    {
      "inputs": [],
      "name": "totalmarket",
      "outputs": [
        {
          "internalType": "uint256",
          "name": "",
          "type": "uint256"
        }
      ],
      "stateMutability": "view",
      "type": "function",
      "constant": true
    },
    {
      "inputs": [
        {
          "internalType": "string",
          "name": "name",
          "type": "string"
        },
        {
          "internalType": "address",
          "name": "contractadd",
          "type": "address"
        },
        {
          "internalType": "uint256",
          "name": "price",
          "type": "uint256"
        }
      ],
      "name": "addAsset721",
      "outputs": [],
      "stateMutability": "nonpayable",
      "type": "function"
    },
    {
      "inputs": [
        {
          "internalType": "address",
          "name": "name",
          "type": "address"
        }
      ],
      "name": "changemaincurrency",
      "outputs": [],
      "stateMutability": "nonpayable",
      "type": "function"
    },
    {
      "inputs": [
        {
          "internalType": "string",
          "name": "name",
          "type": "string"
        },
        {
          "internalType": "address",
          "name": "contractadd",
          "type": "address"
        },
        {
          "internalType": "uint256",
          "name": "price",
          "type": "uint256"
        }
      ],
      "name": "addAsset1155",
      "outputs": [],
      "stateMutability": "nonpayable",
      "type": "function"
    },
    {
      "inputs": [
        {
          "internalType": "uint256",
          "name": "number",
          "type": "uint256"
        }
      ],
      "name": "updatetotalisland",
      "outputs": [],
      "stateMutability": "nonpayable",
      "type": "function"
    },
    {
      "inputs": [
        {
          "internalType": "uint256",
          "name": "id",
          "type": "uint256"
        }
      ],
      "name": "assetdetails",
      "outputs": [
        {
          "components": [
            {
              "internalType": "string",
              "name": "Name",
              "type": "string"
            },
            {
              "internalType": "uint256",
              "name": "id",
              "type": "uint256"
            },
            {
              "internalType": "address",
              "name": "contractadd",
              "type": "address"
            },
            {
              "internalType": "uint256",
              "name": "price",
              "type": "uint256"
            },
            {
              "internalType": "bool",
              "name": "tokentype",
              "type": "bool"
            }
          ],
          "internalType": "struct NomadMain.Asset",
          "name": "",
          "type": "tuple"
        }
      ],
      "stateMutability": "view",
      "type": "function",
      "constant": true
    },
    {
      "inputs": [
        {
          "internalType": "address",
          "name": "addr",
          "type": "address"
        }
      ],
      "name": "userdetails",
      "outputs": [
        {
          "components": [
            {
              "internalType": "bool",
              "name": "gamestarted",
              "type": "bool"
            },
            {
              "internalType": "uint256",
              "name": "position",
              "type": "uint256"
            },
            {
              "internalType": "uint256",
              "name": "health",
              "type": "uint256"
            },
            {
              "internalType": "uint256",
              "name": "sleep",
              "type": "uint256"
            },
            {
              "internalType": "uint256",
              "name": "food",
              "type": "uint256"
            },
            {
              "internalType": "uint256",
              "name": "lastmoved",
              "type": "uint256"
            },
            {
              "internalType": "uint256",
              "name": "lastcalled",
              "type": "uint256"
            }
          ],
          "internalType": "struct NomadMain.User",
          "name": "",
          "type": "tuple"
        }
      ],
      "stateMutability": "view",
      "type": "function",
      "constant": true
    },
    {
      "inputs": [
        {
          "internalType": "address",
          "name": "addr",
          "type": "address"
        }
      ],
      "name": "getcoin",
      "outputs": [
        {
          "internalType": "uint256",
          "name": "",
          "type": "uint256"
        }
      ],
      "stateMutability": "view",
      "type": "function",
      "constant": true
    },
    {
      "inputs": [],
      "name": "startgame",
      "outputs": [],
      "stateMutability": "nonpayable",
      "type": "function"
    },
    {
      "inputs": [],
      "name": "move",
      "outputs": [],
      "stateMutability": "nonpayable",
      "type": "function"
    },
    {
      "inputs": [],
      "name": "reward3",
      "outputs": [
        {
          "internalType": "uint256",
          "name": "",
          "type": "uint256"
        }
      ],
      "stateMutability": "nonpayable",
      "type": "function"
    },
    {
      "inputs": [],
      "name": "update",
      "outputs": [],
      "stateMutability": "nonpayable",
      "type": "function"
    },
    {
      "inputs": [
        {
          "internalType": "string",
          "name": "name",
          "type": "string"
        },
        {
          "internalType": "uint256",
          "name": "assettype",
          "type": "uint256"
        },
        {
          "internalType": "uint256",
          "name": "effect",
          "type": "uint256"
        },
        {
          "internalType": "uint256",
          "name": "price",
          "type": "uint256"
        },
        {
          "internalType": "uint256",
          "name": "position",
          "type": "uint256"
        },
        {
          "internalType": "uint256",
          "name": "marketprice",
          "type": "uint256"
        }
      ],
      "name": "addmarket",
      "outputs": [],
      "stateMutability": "nonpayable",
      "type": "function"
    },
    {
      "inputs": [],
      "name": "marketdetails",
      "outputs": [
        {
          "components": [
            {
              "internalType": "string",
              "name": "name",
              "type": "string"
            },
            {
              "internalType": "address",
              "name": "owner",
              "type": "address"
            },
            {
              "internalType": "uint256",
              "name": "assettype",
              "type": "uint256"
            },
            {
              "internalType": "uint256",
              "name": "price",
              "type": "uint256"
            },
            {
              "internalType": "uint256",
              "name": "boost",
              "type": "uint256"
            },
            {
              "internalType": "uint256",
              "name": "position",
              "type": "uint256"
            },
            {
              "internalType": "uint256",
              "name": "marketprice",
              "type": "uint256"
            },
            {
              "internalType": "bool",
              "name": "onsale",
              "type": "bool"
            }
          ],
          "internalType": "struct NomadMain.Markettype[]",
          "name": "",
          "type": "tuple[]"
        }
      ],
      "stateMutability": "view",
      "type": "function",
      "constant": true
    },
    {
      "inputs": [
        {
          "internalType": "uint256",
          "name": "id",
          "type": "uint256"
        }
      ],
      "name": "buymarket",
      "outputs": [],
      "stateMutability": "nonpayable",
      "type": "function"
    },
    {
      "inputs": [
        {
          "internalType": "uint256",
          "name": "id",
          "type": "uint256"
        },
        {
          "internalType": "uint256",
          "name": "price",
          "type": "uint256"
        }
      ],
      "name": "sellmarket",
      "outputs": [],
      "stateMutability": "nonpayable",
      "type": "function"
    },
    {
      "inputs": [
        {
          "internalType": "uint256",
          "name": "marketid",
          "type": "uint256"
        }
      ],
      "name": "executemarket",
      "outputs": [],
      "stateMutability": "nonpayable",
      "type": "function"
    }
  ],
  "bytecode": "0x608060405260006007556002600855600060095534801561001f57600080fd5b50326000806101000a81548173ffffffffffffffffffffffffffffffffffffffff021916908373ffffffffffffffffffffffffffffffffffffffff160217905550612fd18061006f6000396000f3fe608060405234801561001057600080fd5b506004361061018e5760003560e01c8063a2e62045116100de578063cb1785e011610097578063ea4d6c4611610071578063ea4d6c461461045a578063ebf4a6061461048a578063ec71c2cc146104a8578063fc09b233146104c45761018e565b8063cb1785e0146103da578063cf35bdd01461040a578063e7f2d8e71461043e5761018e565b8063a2e620451461031f578063aaaea04714610329578063b0329f5114610333578063b1283e771461034f578063bbf4723114610386578063c4f6d1f3146103bc5761018e565b80636c5a34bd1161014b5780637d02edad116101255780637d02edad1461029957806388ad4c13146102c95780638bf3aa37146102e55780638da5cb5b146103015761018e565b80636c5a34bd1461022d5780636c8f29de1461024b57806372c30358146102695761018e565b80630addf41d146101935780631646d4dc146101af5780632ffa48da146101cd5780633ec48a2e146101eb57806344484e3b146101f55780636aa780f614610211575b600080fd5b6101ad60048036038101906101a89190612460565b6104e2565b005b6101b7610636565b6040516101c491906124de565b60405180910390f35b6101d561063c565b6040516101e2919061272c565b60405180910390f35b6101f3610838565b005b61020f600480360381019061020a9190612460565b610969565b005b61022b6004803603810190610226919061274e565b610b3f565b005b610235610dd3565b60405161024291906124de565b60405180910390f35b610253610ed3565b604051610260919061278a565b60405180910390f35b610283600480360381019061027e91906127a5565b610ef9565b60405161029091906127e1565b60405180910390f35b6102b360048036038101906102ae91906127a5565b610f19565b6040516102c0919061288a565b60405180910390f35b6102e360048036038101906102de91906128a5565b610fc9565b005b6102ff60048036038101906102fa919061294e565b6111a8565b005b61030961126c565b604051610316919061278a565b60405180910390f35b610327611290565b005b6103316114a9565b005b61034d6004803603810190610348919061274e565b6117e5565b005b6103696004803603810190610364919061274e565b611847565b60405161037d9897969594939291906129d8565b60405180910390f35b6103a0600480360381019061039b91906127a5565b611944565b6040516103b39796959493929190612a5d565b60405180910390f35b6103c4611993565b6040516103d191906124de565b60405180910390f35b6103f460048036038101906103ef91906127a5565b611999565b60405161040191906124de565b60405180910390f35b610424600480360381019061041f919061274e565b611a3e565b604051610435959493929190612acc565b60405180910390f35b610458600480360381019061045391906127a5565b611b29565b005b610474600480360381019061046f919061274e565b611bc5565b6040516104819190612b9c565b60405180910390f35b610492611d09565b60405161049f91906124de565b60405180910390f35b6104c260048036038101906104bd919061274e565b611d0f565b005b6104cc6120e6565b6040516104d991906124de565b60405180910390f35b60008054906101000a900473ffffffffffffffffffffffffffffffffffffffff1673ffffffffffffffffffffffffffffffffffffffff163373ffffffffffffffffffffffffffffffffffffffff161461053a57600080fd5b60006040518060a00160405280858152602001600081526020018473ffffffffffffffffffffffffffffffffffffffff1681526020018381526020016000151581525090508060056000600754815260200190815260200160002060008201518160000190805190602001906105b19291906120ec565b506020820151816001015560408201518160020160006101000a81548173ffffffffffffffffffffffffffffffffffffffff021916908373ffffffffffffffffffffffffffffffffffffffff1602179055506060820151816003015560808201518160040160006101000a81548160ff02191690831515021790555090505050505050565b60085481565b6060600060095467ffffffffffffffff81111561065c5761065b6122a1565b5b60405190808252806020026020018201604052801561069557816020015b610682612172565b81526020019060019003908161067a5790505b50905060005b60095481101561083057600060066000838152602001908152602001600020905080604051806101000160405290816000820180546106d990612bed565b80601f016020809104026020016040519081016040528092919081815260200182805461070590612bed565b80156107525780601f1061072757610100808354040283529160200191610752565b820191906000526020600020905b81548152906001019060200180831161073557829003601f168201915b505050505081526020016001820160009054906101000a900473ffffffffffffffffffffffffffffffffffffffff1673ffffffffffffffffffffffffffffffffffffffff1673ffffffffffffffffffffffffffffffffffffffff16815260200160028201548152602001600382015481526020016004820154815260200160058201548152602001600682015481526020016007820160009054906101000a900460ff16151515158152505083838151811061081157610810612c1f565b5b602002602001018190525050808061082890612c7d565b91505061069b565b508091505090565b43600854600460003273ffffffffffffffffffffffffffffffffffffffff1673ffffffffffffffffffffffffffffffffffffffff168152602001908152602001600020600501546108899190612cc6565b1061089357600080fd5b600060015444426040516020016108ab929190612d3d565b6040516020818303038152906040528051906020012060001c6108ce9190612d98565b90506108d8611290565b43600460003273ffffffffffffffffffffffffffffffffffffffff1673ffffffffffffffffffffffffffffffffffffffff1681526020019081526020016000206005018190555080600460003273ffffffffffffffffffffffffffffffffffffffff1673ffffffffffffffffffffffffffffffffffffffff1681526020019081526020016000206001018190555050565b60008054906101000a900473ffffffffffffffffffffffffffffffffffffffff1673ffffffffffffffffffffffffffffffffffffffff163373ffffffffffffffffffffffffffffffffffffffff16146109c157600080fd5b60008273ffffffffffffffffffffffffffffffffffffffff16631bc7ffe985846040518363ffffffff1660e01b81526004016109fe929190612dc9565b6020604051808303816000875af1158015610a1d573d6000803e3d6000fd5b505050506040513d601f19601f82011682018060405250810190610a419190612e0e565b905060006040518060a001604052808681526020018381526020018573ffffffffffffffffffffffffffffffffffffffff168152602001848152602001600115158152509050806005600060075481526020019081526020016000206000820151816000019080519060200190610ab99291906120ec565b506020820151816001015560408201518160020160006101000a81548173ffffffffffffffffffffffffffffffffffffffff021916908373ffffffffffffffffffffffffffffffffffffffff1602179055506060820151816003015560808201518160040160006101000a81548160ff0219169083151502179055509050505050505050565b3273ffffffffffffffffffffffffffffffffffffffff166006600083815260200190815260200160002060010160009054906101000a900473ffffffffffffffffffffffffffffffffffffffff1673ffffffffffffffffffffffffffffffffffffffff161415610bae57600080fd5b600115156006600083815260200190815260200160002060070160009054906101000a900460ff16151514610be257600080fd5b600260009054906101000a900473ffffffffffffffffffffffffffffffffffffffff1673ffffffffffffffffffffffffffffffffffffffff166370a08231326040518263ffffffff1660e01b8152600401610c3d919061278a565b602060405180830381865afa158015610c5a573d6000803e3d6000fd5b505050506040513d601f19601f82011682018060405250810190610c7e9190612e0e565b600660008381526020019081526020016000206006015410610c9f57600080fd5b600260009054906101000a900473ffffffffffffffffffffffffffffffffffffffff1673ffffffffffffffffffffffffffffffffffffffff16639dc29fac3260066000858152602001908152602001600020600601546040518363ffffffff1660e01b8152600401610d12929190612e3b565b600060405180830381600087803b158015610d2c57600080fd5b505af1158015610d40573d6000803e3d6000fd5b5050505060006006600083815260200190815260200160002060070160006101000a81548160ff021916908315150217905550326006600083815260200190815260200160002060010160006101000a81548173ffffffffffffffffffffffffffffffffffffffff021916908373ffffffffffffffffffffffffffffffffffffffff160217905550610dd0611290565b50565b60008060644442604051602001610deb929190612d3d565b6040516020818303038152906040528051906020012060001c610e0e9190612d98565b905060218111610e54576021811415610e2b576019915050610ed0565b6000600382610e3a9190612d98565b1415610e4a576001915050610ed0565b6000915050610ed0565b60428111610e98576042811415610e6f576002915050610ed0565b6000600382610e7e9190612d98565b1415610e8e576001915050610ed0565b6000915050610ed0565b6063811415610eab576002915050610ed0565b6000600382610eba9190612d98565b1415610eca576001915050610ed0565b60009150505b90565b600260009054906101000a900473ffffffffffffffffffffffffffffffffffffffff1681565b60036020528060005260406000206000915054906101000a900460ff1681565b610f216121cf565b600460008373ffffffffffffffffffffffffffffffffffffffff1673ffffffffffffffffffffffffffffffffffffffff1681526020019081526020016000206040518060e00160405290816000820160009054906101000a900460ff1615151515815260200160018201548152602001600282015481526020016003820154815260200160048201548152602001600582015481526020016006820154815250509050919050565b60008054906101000a900473ffffffffffffffffffffffffffffffffffffffff1673ffffffffffffffffffffffffffffffffffffffff163373ffffffffffffffffffffffffffffffffffffffff161461102157600080fd5b60015482111561103057600080fd5b606484111561103e57600080fd5b6003851061104b57600080fd5b60405180610100016040528087815260200160008054906101000a900473ffffffffffffffffffffffffffffffffffffffff1673ffffffffffffffffffffffffffffffffffffffff1681526020018681526020018481526020018581526020018381526020018281526020016001151581525060066000600960008154809291906110d590612c7d565b91905055815260200190815260200160002060008201518160000190805190602001906111039291906120ec565b5060208201518160010160006101000a81548173ffffffffffffffffffffffffffffffffffffffff021916908373ffffffffffffffffffffffffffffffffffffffff16021790555060408201518160020155606082015181600301556080820151816004015560a0820151816005015560c0820151816006015560e08201518160070160006101000a81548160ff021916908315150217905550905050505050505050565b3273ffffffffffffffffffffffffffffffffffffffff166006600084815260200190815260200160002060010160009054906101000a900473ffffffffffffffffffffffffffffffffffffffff1673ffffffffffffffffffffffffffffffffffffffff161461121657600080fd5b60016006600084815260200190815260200160002060070160006101000a81548160ff021916908315150217905550806006600084815260200190815260200160002060060181905550611268611290565b5050565b60008054906101000a900473ffffffffffffffffffffffffffffffffffffffff1681565b6000610ed8600460003273ffffffffffffffffffffffffffffffffffffffff1673ffffffffffffffffffffffffffffffffffffffff16815260200190815260200160002060060154436112e39190612e64565b6112ed9190612e98565b9050600060034442604051602001611306929190612d3d565b6040516020818303038152906040528051906020012060001c6113299190612d98565b905060008114156113925781600460003273ffffffffffffffffffffffffffffffffffffffff1673ffffffffffffffffffffffffffffffffffffffff16815260200190815260200160002060020160008282546113869190612e64565b9250508190555061145e565b60018114156113f95781600460003273ffffffffffffffffffffffffffffffffffffffff1673ffffffffffffffffffffffffffffffffffffffff16815260200190815260200160002060030160008282546113ed9190612e64565b9250508190555061145d565b600281141561145c5781600460003273ffffffffffffffffffffffffffffffffffffffff1673ffffffffffffffffffffffffffffffffffffffff16815260200190815260200160002060040160008282546114549190612e64565b925050819055505b5b5b43600460003273ffffffffffffffffffffffffffffffffffffffff1673ffffffffffffffffffffffffffffffffffffffff168152602001908152602001600020600601819055505050565b60001515600360003273ffffffffffffffffffffffffffffffffffffffff1673ffffffffffffffffffffffffffffffffffffffff16815260200190815260200160002060009054906101000a900460ff1615151461150657600080fd5b60008054906101000a900473ffffffffffffffffffffffffffffffffffffffff1673ffffffffffffffffffffffffffffffffffffffff163273ffffffffffffffffffffffffffffffffffffffff1614156115ec57600260009054906101000a900473ffffffffffffffffffffffffffffffffffffffff1673ffffffffffffffffffffffffffffffffffffffff1663eb4a0223611388326040518363ffffffff1660e01b81526004016115b9929190612f0e565b600060405180830381600087803b1580156115d357600080fd5b505af11580156115e7573d6000803e3d6000fd5b505050505b60006001544442604051602001611604929190612d3d565b6040516020818303038152906040528051906020012060001c6116279190612d98565b90506040518060e001604052806001151581526020018281526020016064815260200160648152602001606481526020016000815260200143815250600460003273ffffffffffffffffffffffffffffffffffffffff1673ffffffffffffffffffffffffffffffffffffffff16815260200190815260200160002060008201518160000160006101000a81548160ff0219169083151502179055506020820151816001015560408201518160020155606082015181600301556080820151816004015560a0820151816005015560c08201518160060155905050600260009054906101000a900473ffffffffffffffffffffffffffffffffffffffff1673ffffffffffffffffffffffffffffffffffffffff1663eb4a02236103e8326040518363ffffffff1660e01b8152600401611760929190612f72565b600060405180830381600087803b15801561177a57600080fd5b505af115801561178e573d6000803e3d6000fd5b5050505060011515600360003273ffffffffffffffffffffffffffffffffffffffff1673ffffffffffffffffffffffffffffffffffffffff16815260200190815260200160002060009054906101000a9050505050565b60008054906101000a900473ffffffffffffffffffffffffffffffffffffffff1673ffffffffffffffffffffffffffffffffffffffff163373ffffffffffffffffffffffffffffffffffffffff161461183d57600080fd5b8060018190555050565b600660205280600052604060002060009150905080600001805461186a90612bed565b80601f016020809104026020016040519081016040528092919081815260200182805461189690612bed565b80156118e35780601f106118b8576101008083540402835291602001916118e3565b820191906000526020600020905b8154815290600101906020018083116118c657829003601f168201915b5050505050908060010160009054906101000a900473ffffffffffffffffffffffffffffffffffffffff16908060020154908060030154908060040154908060050154908060060154908060070160009054906101000a900460ff16905088565b60046020528060005260406000206000915090508060000160009054906101000a900460ff16908060010154908060020154908060030154908060040154908060050154908060060154905087565b60095481565b6000600260009054906101000a900473ffffffffffffffffffffffffffffffffffffffff1673ffffffffffffffffffffffffffffffffffffffff166370a08231836040518263ffffffff1660e01b81526004016119f6919061278a565b602060405180830381865afa158015611a13573d6000803e3d6000fd5b505050506040513d601f19601f82011682018060405250810190611a379190612e0e565b9050919050565b6005602052806000526040600020600091509050806000018054611a6190612bed565b80601f0160208091040260200160405190810160405280929190818152602001828054611a8d90612bed565b8015611ada5780601f10611aaf57610100808354040283529160200191611ada565b820191906000526020600020905b815481529060010190602001808311611abd57829003601f168201915b5050505050908060010154908060020160009054906101000a900473ffffffffffffffffffffffffffffffffffffffff16908060030154908060040160009054906101000a900460ff16905085565b60008054906101000a900473ffffffffffffffffffffffffffffffffffffffff1673ffffffffffffffffffffffffffffffffffffffff163273ffffffffffffffffffffffffffffffffffffffff1614611b8157600080fd5b80600260006101000a81548173ffffffffffffffffffffffffffffffffffffffff021916908373ffffffffffffffffffffffffffffffffffffffff16021790555050565b611bcd61220e565b600560008381526020019081526020016000206040518060a0016040529081600082018054611bfb90612bed565b80601f0160208091040260200160405190810160405280929190818152602001828054611c2790612bed565b8015611c745780601f10611c4957610100808354040283529160200191611c74565b820191906000526020600020905b815481529060010190602001808311611c5757829003601f168201915b50505050508152602001600182015481526020016002820160009054906101000a900473ffffffffffffffffffffffffffffffffffffffff1673ffffffffffffffffffffffffffffffffffffffff1673ffffffffffffffffffffffffffffffffffffffff168152602001600382015481526020016004820160009054906101000a900460ff1615151515815250509050919050565b60015481565b611d17611290565b600260009054906101000a900473ffffffffffffffffffffffffffffffffffffffff1673ffffffffffffffffffffffffffffffffffffffff166368c6b11a3260066000858152602001908152602001600020600301546040518363ffffffff1660e01b8152600401611d8a929190612e3b565b600060405180830381600087803b158015611da457600080fd5b505af1158015611db8573d6000803e3d6000fd5b505050506000600660008381526020019081526020016000206002015490506000600660008481526020019081526020016000206004015490506000821415611eed5780600460003273ffffffffffffffffffffffffffffffffffffffff1673ffffffffffffffffffffffffffffffffffffffff1681526020019081526020016000206002016000828254611e4d9190612cc6565b925050819055506064600460003273ffffffffffffffffffffffffffffffffffffffff1673ffffffffffffffffffffffffffffffffffffffff168152602001908152602001600020600201541115611ee8576064600460003273ffffffffffffffffffffffffffffffffffffffff1673ffffffffffffffffffffffffffffffffffffffff168152602001908152602001600020600201819055505b6120e1565b6001821415611fe85780600460003273ffffffffffffffffffffffffffffffffffffffff1673ffffffffffffffffffffffffffffffffffffffff1681526020019081526020016000206003016000828254611f489190612cc6565b925050819055506064600460003273ffffffffffffffffffffffffffffffffffffffff1673ffffffffffffffffffffffffffffffffffffffff168152602001908152602001600020600301541115611fe3576064600460003273ffffffffffffffffffffffffffffffffffffffff1673ffffffffffffffffffffffffffffffffffffffff168152602001908152602001600020600301819055505b6120e0565b60028214156120df5780600460003273ffffffffffffffffffffffffffffffffffffffff1673ffffffffffffffffffffffffffffffffffffffff16815260200190815260200160002060040160008282546120439190612cc6565b925050819055506064600460003273ffffffffffffffffffffffffffffffffffffffff1673ffffffffffffffffffffffffffffffffffffffff1681526020019081526020016000206004015411156120de576064600460003273ffffffffffffffffffffffffffffffffffffffff1673ffffffffffffffffffffffffffffffffffffffff168152602001908152602001600020600401819055505b5b5b5b505050565b60075481565b8280546120f890612bed565b90600052602060002090601f01602090048101928261211a5760008555612161565b82601f1061213357805160ff1916838001178555612161565b82800160010185558215612161579182015b82811115612160578251825591602001919060010190612145565b5b50905061216e9190612255565b5090565b60405180610100016040528060608152602001600073ffffffffffffffffffffffffffffffffffffffff16815260200160008152602001600081526020016000815260200160008152602001600081526020016000151581525090565b6040518060e001604052806000151581526020016000815260200160008152602001600081526020016000815260200160008152602001600081525090565b6040518060a001604052806060815260200160008152602001600073ffffffffffffffffffffffffffffffffffffffff168152602001600081526020016000151581525090565b5b8082111561226e576000816000905550600101612256565b5090565b6000604051905090565b600080fd5b600080fd5b600080fd5b600080fd5b6000601f19601f8301169050919050565b7f4e487b7100000000000000000000000000000000000000000000000000000000600052604160045260246000fd5b6122d982612290565b810181811067ffffffffffffffff821117156122f8576122f76122a1565b5b80604052505050565b600061230b612272565b905061231782826122d0565b919050565b600067ffffffffffffffff821115612337576123366122a1565b5b61234082612290565b9050602081019050919050565b82818337600083830152505050565b600061236f61236a8461231c565b612301565b90508281526020810184848401111561238b5761238a61228b565b5b61239684828561234d565b509392505050565b600082601f8301126123b3576123b2612286565b5b81356123c384826020860161235c565b91505092915050565b600073ffffffffffffffffffffffffffffffffffffffff82169050919050565b60006123f7826123cc565b9050919050565b612407816123ec565b811461241257600080fd5b50565b600081359050612424816123fe565b92915050565b6000819050919050565b61243d8161242a565b811461244857600080fd5b50565b60008135905061245a81612434565b92915050565b6000806000606084860312156124795761247861227c565b5b600084013567ffffffffffffffff81111561249757612496612281565b5b6124a38682870161239e565b93505060206124b486828701612415565b92505060406124c58682870161244b565b9150509250925092565b6124d88161242a565b82525050565b60006020820190506124f360008301846124cf565b92915050565b600081519050919050565b600082825260208201905092915050565b6000819050602082019050919050565b600081519050919050565b600082825260208201905092915050565b60005b8381101561255f578082015181840152602081019050612544565b8381111561256e576000848401525b50505050565b600061257f82612525565b6125898185612530565b9350612599818560208601612541565b6125a281612290565b840191505092915050565b6125b6816123ec565b82525050565b6125c58161242a565b82525050565b60008115159050919050565b6125e0816125cb565b82525050565b60006101008301600083015184820360008601526126048282612574565b915050602083015161261960208601826125ad565b50604083015161262c60408601826125bc565b50606083015161263f60608601826125bc565b50608083015161265260808601826125bc565b5060a083015161266560a08601826125bc565b5060c083015161267860c08601826125bc565b5060e083015161268b60e08601826125d7565b508091505092915050565b60006126a283836125e6565b905092915050565b6000602082019050919050565b60006126c2826124f9565b6126cc8185612504565b9350836020820285016126de85612515565b8060005b8581101561271a57848403895281516126fb8582612696565b9450612706836126aa565b925060208a019950506001810190506126e2565b50829750879550505050505092915050565b6000602082019050818103600083015261274681846126b7565b905092915050565b6000602082840312156127645761276361227c565b5b60006127728482850161244b565b91505092915050565b612784816123ec565b82525050565b600060208201905061279f600083018461277b565b92915050565b6000602082840312156127bb576127ba61227c565b5b60006127c984828501612415565b91505092915050565b6127db816125cb565b82525050565b60006020820190506127f660008301846127d2565b92915050565b60e08201600082015161281260008501826125d7565b50602082015161282560208501826125bc565b50604082015161283860408501826125bc565b50606082015161284b60608501826125bc565b50608082015161285e60808501826125bc565b5060a082015161287160a08501826125bc565b5060c082015161288460c08501826125bc565b50505050565b600060e08201905061289f60008301846127fc565b92915050565b60008060008060008060c087890312156128c2576128c161227c565b5b600087013567ffffffffffffffff8111156128e0576128df612281565b5b6128ec89828a0161239e565b96505060206128fd89828a0161244b565b955050604061290e89828a0161244b565b945050606061291f89828a0161244b565b935050608061293089828a0161244b565b92505060a061294189828a0161244b565b9150509295509295509295565b600080604083850312156129655761296461227c565b5b60006129738582860161244b565b92505060206129848582860161244b565b9150509250929050565b600082825260208201905092915050565b60006129aa82612525565b6129b4818561298e565b93506129c4818560208601612541565b6129cd81612290565b840191505092915050565b60006101008201905081810360008301526129f3818b61299f565b9050612a02602083018a61277b565b612a0f60408301896124cf565b612a1c60608301886124cf565b612a2960808301876124cf565b612a3660a08301866124cf565b612a4360c08301856124cf565b612a5060e08301846127d2565b9998505050505050505050565b600060e082019050612a72600083018a6127d2565b612a7f60208301896124cf565b612a8c60408301886124cf565b612a9960608301876124cf565b612aa660808301866124cf565b612ab360a08301856124cf565b612ac060c08301846124cf565b98975050505050505050565b600060a0820190508181036000830152612ae6818861299f565b9050612af560208301876124cf565b612b02604083018661277b565b612b0f60608301856124cf565b612b1c60808301846127d2565b9695505050505050565b600060a0830160008301518482036000860152612b438282612574565b9150506020830151612b5860208601826125bc565b506040830151612b6b60408601826125ad565b506060830151612b7e60608601826125bc565b506080830151612b9160808601826125d7565b508091505092915050565b60006020820190508181036000830152612bb68184612b26565b905092915050565b7f4e487b7100000000000000000000000000000000000000000000000000000000600052602260045260246000fd5b60006002820490506001821680612c0557607f821691505b60208210811415612c1957612c18612bbe565b5b50919050565b7f4e487b7100000000000000000000000000000000000000000000000000000000600052603260045260246000fd5b7f4e487b7100000000000000000000000000000000000000000000000000000000600052601160045260246000fd5b6000612c888261242a565b91507fffffffffffffffffffffffffffffffffffffffffffffffffffffffffffffffff821415612cbb57612cba612c4e565b5b600182019050919050565b6000612cd18261242a565b9150612cdc8361242a565b9250827fffffffffffffffffffffffffffffffffffffffffffffffffffffffffffffffff03821115612d1157612d10612c4e565b5b828201905092915050565b6000819050919050565b612d37612d328261242a565b612d1c565b82525050565b6000612d498285612d26565b602082019150612d598284612d26565b6020820191508190509392505050565b7f4e487b7100000000000000000000000000000000000000000000000000000000600052601260045260246000fd5b6000612da38261242a565b9150612dae8361242a565b925082612dbe57612dbd612d69565b5b828206905092915050565b60006040820190508181036000830152612de3818561299f565b9050612df260208301846124cf565b9392505050565b600081519050612e0881612434565b92915050565b600060208284031215612e2457612e2361227c565b5b6000612e3284828501612df9565b91505092915050565b6000604082019050612e50600083018561277b565b612e5d60208301846124cf565b9392505050565b6000612e6f8261242a565b9150612e7a8361242a565b925082821015612e8d57612e8c612c4e565b5b828203905092915050565b6000612ea38261242a565b9150612eae8361242a565b925082612ebe57612ebd612d69565b5b828204905092915050565b6000819050919050565b6000819050919050565b6000612ef8612ef3612eee84612ec9565b612ed3565b61242a565b9050919050565b612f0881612edd565b82525050565b6000604082019050612f236000830185612eff565b612f30602083018461277b565b9392505050565b6000819050919050565b6000612f5c612f57612f5284612f37565b612ed3565b61242a565b9050919050565b612f6c81612f41565b82525050565b6000604082019050612f876000830185612f63565b612f94602083018461277b565b939250505056fea26469706673582212201bb0e2314fd7deb25f789ee9c2e954a62cf631fc7d814f6d96dcf94a44d2aa2564736f6c634300080c0033",
  "immutableReferences": {},
  "source": "pragma solidity ^0.8.0;\n\ninterface IERC1155 {\n    function addAsset(string memory assetname, uint256 price)\n        external\n        returns (uint256);\n\n    function mint(uint256 id, uint256 amount) external;\n\n    function updatelock(uint256 assetid, uint256 amount) external;\n}\n\ninterface IERC20 {\n    function balanceOf(address account) external view returns (uint256);\n\n    function subtract(address owner, uint256 amount) external;\n\n    function mintnew(uint256 amount, address to) external;\n\n    function burn(address to, uint256 amount) external;\n}\n\n/* is ERC165 */\ninterface ERC721 {\n    function mint(address starter) external;\n\n    function lock(uint256 minerid, uint256 townhallid) external;\n\n    function unlock(uint256 minerid, uint256 townhallid) external;\n\n    function updatelock(\n        uint256 minerid,\n        uint256 townhallid,\n        uint256 amount\n    ) external;\n\n    function collect(uint256 id) external returns (uint256);\n}\n\ncontract NomadMain {\n    address public owner;\n    uint256 public totalisland;\n    address public maincurrency;\n    struct Asset {\n        string Name;\n        uint256 id;\n        address contractadd;\n        uint256 price;\n        bool tokentype;\n    }\n    struct User {\n        bool gamestarted;\n        uint256 position;\n        uint256 health;\n        uint256 sleep;\n        uint256 food;\n        uint256 lastmoved;\n        uint256 lastcalled;\n    }\n\n    struct Markettype {\n        string name;\n        address owner;\n        uint256 assettype;\n        uint256 price;\n        uint256 boost;\n        uint256 position;\n        uint256 marketprice;\n        bool onsale;\n    }\n\n    mapping(address => bool) public letgame;\n\n    mapping(address => User) public gameuser;\n    mapping(uint256 => Asset) public assets;\n    mapping(uint256 => Markettype) public markets;\n    uint256 public currentcount = 0;\n    uint256 public movedifference = 2;\n    uint256 public totalmarket = 0;\n\n    modifier onlyOwner() {\n        require(msg.sender == owner);\n        _;\n    }\n\n    constructor() {\n        owner = tx.origin;\n    }\n\n    function addAsset721(\n        string memory name,\n        address contractadd,\n        uint256 price\n    ) public onlyOwner {\n        Asset memory asset = Asset(name, 0, contractadd, price, false);\n        assets[currentcount] = asset;\n    }\n\n\n    function changemaincurrency(address name) public{\n        require(tx.origin == owner);\n        maincurrency = name;\n\n    }\n\n    function addAsset1155(\n        string memory name,\n        address contractadd,\n        uint256 price\n    ) public onlyOwner {\n        uint256 id = IERC1155(contractadd).addAsset(name, price);\n        Asset memory asset = Asset(name, id, contractadd, price, true);\n        assets[currentcount] = asset;\n    }\n\n    function updatetotalisland(uint256 number) public onlyOwner {\n        totalisland = number;\n    }\n\n    function assetdetails(uint256 id) public view returns (Asset memory) {\n        return assets[id];\n    }\n\n    function userdetails(address addr) public view returns (User memory) {\n        return gameuser[addr];\n    }\n\n    function getcoin(address addr) public view returns (uint256) {\n        return IERC20(maincurrency).balanceOf(addr);\n    }\n\n    \n\n    function startgame() public {\n        require(letgame[tx.origin] == false );\n        if (tx.origin == owner) {\n            IERC20(maincurrency).mintnew(5000, tx.origin);\n        }\n        uint256 position = uint256(\n            keccak256(abi.encodePacked(block.difficulty, block.timestamp))\n        ) % totalisland;\n        gameuser[tx.origin] = User(\n            true,\n            position,\n            100,\n            100,\n            100,\n            0,\n            block.number\n        );\n        IERC20(maincurrency).mintnew(1000, tx.origin);\n        letgame[tx.origin] == true;\n    }\n\n    function move() public {\n        require(gameuser[tx.origin].lastmoved + movedifference < block.number);\n        uint256 position = uint256(\n            keccak256(abi.encodePacked(block.difficulty, block.timestamp))\n        ) % totalisland;\n\n        update();\n        gameuser[tx.origin].lastmoved = block.number;\n        gameuser[tx.origin].position = position;\n    }\n\n    function reward3() public returns (uint256) {\n        uint256 position = uint256(\n            keccak256(abi.encodePacked(block.difficulty, block.timestamp))\n        ) % 100;\n        if (position <= 33) {\n            if (position == 33) {\n                return 25;\n            } else if (position % 3 == 0) {\n                return 1;\n            } else {\n                return 0;\n            }\n        } else if (position <= 66) {\n            if (position == 66) {\n                return 2;\n            } else if (position % 3 == 0) {\n                return 1;\n            } else {\n                return 0;\n            }\n        } else {\n            if (position == 99) {\n                return 2;\n            } else if (position % 3 == 0) {\n                return 1;\n            } else {\n                return 0;\n            }\n        }\n    }\n\n    function update() public {\n        uint256 effect = (block.number - gameuser[tx.origin].lastcalled) / 3800;\n        uint256 select = uint256(\n            keccak256(abi.encodePacked(block.difficulty, block.timestamp))\n        ) % 3;\n        if (select == 0) {\n            gameuser[tx.origin].health -= effect;\n        } else if (select == 1) {\n            gameuser[tx.origin].sleep -= effect;\n        } else if (select == 2) {\n            gameuser[tx.origin].food -= effect;\n        }\n\n        gameuser[tx.origin].lastcalled = block.number;\n    }\n\n    function addmarket(\n        string memory name,\n        uint256 assettype,\n        uint256 effect,\n        uint256 price,\n        uint256 position,\n        uint256 marketprice\n    ) public onlyOwner {\n        require(position <= totalisland);\n        require(effect <= 100);\n        require(assettype < 3);\n       \n        markets[totalmarket++] = Markettype(\n            name,\n            owner,\n            assettype,\n            price,\n            effect,\n            position,\n            marketprice,\n            true\n        );\n    }\n\n    function marketdetails() public view returns (Markettype[] memory) {\n        Markettype[] memory lmarkets = new Markettype[](totalmarket);\n        for (uint256 i = 0; i < totalmarket; i++) {\n            Markettype storage lBid = markets[i];\n            lmarkets[i] = lBid;\n        }\n        return lmarkets;\n    }\n\n    function buymarket(uint256 id)  public{\n        require(markets[id].owner != tx.origin);\n     \n        require(markets[id].onsale == true);\n        require(\n            markets[id].marketprice < IERC20(maincurrency).balanceOf(tx.origin)\n        );\n\n        IERC20(maincurrency).burn(tx.origin, markets[id].marketprice);\n        markets[id].onsale = false;\n        markets[id].owner = tx.origin;\n        update();\n    }\n\n    function sellmarket(uint256 id, uint256 price) public {\n        require(markets[id].owner == tx.origin);\n        markets[id].onsale = true;\n        markets[id].marketprice = price;\n        update();\n    }\n\n\n    function executemarket(uint256 marketid) public {\n        update();\n        IERC20(maincurrency).subtract(tx.origin, markets[marketid].price);\n        uint256 select = markets[marketid].assettype;\n        uint256 effect = markets[marketid].boost;\n        if (select == 0) {\n            gameuser[tx.origin].health += effect;\n            if (gameuser[tx.origin].health > 100) {\n                gameuser[tx.origin].health = 100;\n            }\n        } else if (select == 1) {\n            gameuser[tx.origin].sleep += effect;\n            if (gameuser[tx.origin].sleep > 100) {\n                gameuser[tx.origin].sleep = 100;\n            }\n        } else if (select == 2) {\n            gameuser[tx.origin].food += effect;\n            if (gameuser[tx.origin].food > 100) {\n                gameuser[tx.origin].food = 100;\n            }\n        }\n    }\n}\n",
  "sourcePath": "/home/kali/Documents/nomadcontract/contracts/NomadMain.sol",
  "compiler": {
    "name": "solc",
    "version": "0.8.12+commit.f00d7308.Emscripten.clang"
  },
  "schemaVersion": "3.4.5",
  "updatedAt": "2022-10-10T21:29:14.582Z",
  "networkType": "ethereum",
  "devdoc": {
    "kind": "dev",
    "methods": {},
    "version": 1
  },
  "userdoc": {
    "kind": "user",
    "methods": {},
    "version": 1
  }
}